:020000040800F2
:1000000000500020910B0008C10A0008C70A000830
:10001000CD0A0008D30A0008D90A00080000000031
:10002000000000000000000000000000DF0A0008DF
:10003000EB0A000800000000F70A0008030B0008A4
:10004000D90B0008D90B0008D90B0008D90B000800
:10005000D90B0008D90B0008D90B0008D90B0008F0
:10006000D90B0008D90B0008D90B0008D90B0008E0
:10007000D90B0008D90B0008D90B0008D90B0008D0
:10008000D90B0008D90B0008D90B0008D90B0008C0
:10009000D90B0008D90B0008D90B0008D90B0008B0
:1000A000D90B0008D90B0008D90B0008D90B0008A0
:1000B000D90B0008D90B0008D90B0008D90B000890
:1000C000D90B0008D90B0008D90B0008D90B000880
:1000D000D90B0008D90B0008D90B0008D90B000870
:1000E0000F0B0008D90B0008D90B00080000000016
:1000F0000000000000000000000000000000000000
:0C01000000000000000000005FF808F1A3
:10010C0010B5054C237833B9044B13B10448AFF345
:10011C0000800123237010BD1C0000200000000093
:10012C003027000808B5034B1BB103490348AFF354
:10013C00008008BD000000002000002030270008CF
:10014C0080B500AF2A4B1B68042B47D801A252F88C
:10015C0023F000BF75010008E901000889010008BF
:10016C00A9010008C9010008214B02221A60214B89
:10017C001B681946002000F0E7FC36E0002000F078
:10018C00CFFC0346002B2BD0194B03221A601A4BC1
:10019C001B681946002000F0D7FC21E0002000F07D
:1001AC00BFFC0346002B1DD0114B04221A60134BCD
:1001BC001B681946002000F0C7FC13E0002000F07B
:1001CC00AFFC0346002B0FD0094B02221A60094BDF
:1001DC001B681946002000F0B7FC05E000BF04E0E6
:1001EC0000BF02E000BF00E000BF00BF80BD00BF49
:1001FC003800002004000020080000200C00002023
:10020C0080B500AF2A4B1B68042B47D801A252F8CB
:10021C0023F000BF35020008A902000849020008BB
:10022C006902000889020008214B03221A60214B45
:10023C001B681946012000F087FC36E0012000F015
:10024C006FFC0346002B2BD0194B03221A60194B61
:10025C001B681946012000F077FC21E0012000F01A
:10026C005FFC0346002B1DD0114B04221A60124B6D
:10027C001B681946012000F067FC13E0012000F018
:10028C004FFC0346002B0FD0094B02221A600B4B7C
:10029C001B681946012000F057FC05E000BF04E084
:1002AC0000BF02E000BF00E000BF00BF80BD00BF88
:1002BC003C000020080000200C000020040000205E
:1002CC0080B500AFFFF73CFFFFF79AFF2F4B1B6881
:1002DC00042B1ED0042B28DC022B02D0032B0CD0B9
:1002EC0023E001224FF48061294800F065FF0022D1
:1002FC000821284800F060FF18E000224FF48061CC
:10030C00234800F059FF01220821224800F054FF35
:10031C000CE001224FF480611D4800F04DFF0122DA
:10032C0008211C4800F048FF00E000BF1A4B1B6876
:10033C00042B1CD0042B25DC022B02D0032B0BD05E
:10034C0020E001222021134800F036FF002210216A
:10035C00104800F031FF16E0002220210D4800F07B
:10036C002BFF012210210B4800F026FF0BE001228D
:10037C002021084800F020FF01221021054800F040
:10038C001BFF00E000BF00BF80BD00BF3800002095
:10039C0000080140000C01403C00002080B483B0F8
:1003AC0000AF7860094A7B6852F82330002B06D0E6
:1003BC00064A7B68002142F82310012300E0002349
:1003CC0018460C37BD4680BC704700BF6800002043
:1003DC0080B483B000AF7860094A7B6852F8233050
:1003EC00002B06D0064A7B68002142F8231001231B
:1003FC0000E0002318460C37BD4680BC704700BF98
:10040C007800002080B500AF0C4B1B68002B02D08D
:10041C00012B04D00FE0094B01221A600BE00020E5
:10042C00FFF7BCFF0346002B02D0044B05221A60D9
:10043C00FFF746FF00BF00BF80BD00BF4400002097
:10044C0080B400AF00BFBD4680BC704780B400AF25
:10045C0000BFBD4680BC704780B500AF5D4B1B68CC
:10046C000B2B77D00B2B00F3AC80092B02D00A2B73
:10047C0038D0A6E00020FFF791FF0346002B02D0F6
:10048C00544B01221A600120FFF788FF0346002B12
:10049C0007D0514B1B684FF47A7202FB03F34F4A9F
:1004AC0013600220FFF77AFF0346002B06D10220CF
:1004BC00FFF78EFF0346002B00F08580464B1A6831
:1004CC00474B83FB02135911D317CB1A642101FB41
:1004DC0003F3D31A404A13603F4B1B6801333E4A67
:1004EC00136070E00020FFF759FF0346002B02D089
:1004FC00384B01221A600120FFF750FF0346002BF6
:10050C0007D0354B1B684FF47A7202FB03F3354A64
:10051C0013600220FFF742FF0346002B05D1022097
:10052C00FFF756FF0346002B4FD02B4B1B682E4A70
:10053C0082FB03121A449111DA178A1A5A2101FB11
:10054C0002F29A1A244B1A60234B1B680133224A7D
:10055C0013603AE00020FFF721FF0346002B02D086
:10056C001C4B01221A600120FFF718FF0346002BD9
:10057C0007D0194B1B684FF47A7202FB03F31B4A2A
:10058C0013600220FFF70AFF0346002B05D102205F
:10059C00FFF71EFF0346002B19D00F4B1A68104BA8
:1005AC0083FB02135911D317CB1A642101FB03F3FC
:1005BC00D31A094A1360084B1B680133064A1360AF
:1005CC0005E000BF04E000BF02E000BF00E000BF98
:1005DC0000BF80BD4400002040000020040000202B
:1005EC001F85EB5108000020B7600BB60C000020F3
:1005FC0080B500AF00F0ECFA00F014F800F0F4F85D
:10060C0000F0C8F800F050F8054801F079FAFFF74F
:10061C00F9FEFFF715FFFFF71FFFFFF717FFF6E7D0
:10062C008800002080B590B000AF07F11803282295
:10063C000021184602F06EF83B1D00221A605A6029
:10064C009A60DA601A610223BB610123BB6210233A
:10065C00FB6202237B630023BB634FF46013FB63D9
:10066C0007F11803184600F0E1FD0346002B01D0FA
:10067C0000F05AF90F237B600223BB600023FB6060
:10068C004FF480633B6100237B613B1D02211846C4
:10069C0001F04CF80346002B01D000F045F900BFE7
:1006AC004037BD4680BD000080B58EB000AF07F16D
:1006BC00280300221A605A609A60DA6007F120035E
:1006CC0000221A605A603B1D00221A605A609A6020
:1006DC00DA601A615A619A612C4B2D4A1A602B4BC5
:1006EC003F225A60294B00229A60284B40F2E73295
:1006FC00DA60264B00221A61244B00229A612348AF
:10070C0001F0AEF90346002B01D000F00DF94FF4C7
:10071C008053BB6207F1280319461C4801F058FBB3
:10072C000346002B01D000F0FFF8184801F03AFA0C
:10073C000346002B01D000F0F7F800233B620023A6
:10074C007B6207F120031946104801F085FE034631
:10075C00002B01D000F0E8F860237B600023BB6025
:10076C000023FB6000237B613B1D002219460748D8
:10077C0001F070FA0346002B01D000F0D5F80348C5
:10078C0000F028F900BF3837BD4680BD8800002036
:10079C000004004080B500AF114B124A1A60104B98
:1007AC004FF4E1325A600E4B00229A600C4B00223F
:1007BC00DA600B4B00221A61094B0C225A61084B70
:1007CC0000229A61064B0022DA61054801F0A2FE74
:1007DC000346002B01D000F0A7F800BF80BD00BF7E
:1007EC00D00000200044004080B588B000AF07F175
:1007FC00100300221A605A609A60DA60454B9B69BC
:10080C00444A43F010039361424B9B6903F010037D
:10081C00FB60FB683F4B9B693E4A43F020039361AE
:10082C003C4B9B6903F02003BB60BB68394B9B6955
:10083C00384A43F004039361364B9B6903F004037D
:10084C007B607B68334B9B69324A43F008039361AE
:10085C00304B9B6903F008033B603B6800224FF46C
:10086C00A4612D4800F0A8FC00224FF487612B48AE
:10087C0000F0A2FC4FF400533B61294B7B61002339
:10088C00BB6107F110031946264800F011FB132336
:10089C003B6100237B610123BB6107F11003194607
:1008AC001D4800F005FB4FF4A4633B6101237B6101
:1008BC000023BB610223FB6107F1100319461648A4
:1008CC0000F0F6FA01233B6100237B610123BB613D
:1008DC0007F110031946114800F0EAFA4FF4876348
:1008EC003B6101237B610023BB610223FB6107F1A8
:1008FC0010031946094800F0DBFA002200212820D9
:10090C0000F09FFA282000F0B8FA00BF2037BD464F
:10091C0080BD00BF0010024000080140000C0140E7
:10092C00000011100010014080B400AF72B600BF7F
:10093C00FEE7000080B485B000AF154B9B69144AEC
:10094C0043F001039361124B9B6903F00103BB60FD
:10095C00BB680F4BDB690E4A43F08053D3610C4BE1
:10096C00DB6903F080537B607B680A4B5B68FB6040
:10097C00FB6823F0E063FB60FB6843F00073FB60F3
:10098C00044AFB68536000BF1437BD4680BC7047F7
:10099C00001002400000014080B485B000AF7860C8
:1009AC007B681B68094A93420BD1094BDB69084AE7
:1009BC0043F00203D361064BDB6903F00203FB60D7
:1009CC00FB6800BF1437BD4680BC70470004004074
:1009DC000010024080B588B000AF786007F11003BA
:1009EC0000221A605A609A60DA607B681B680F4AB2
:1009FC00934217D10E4B9B690D4A43F0040393614C
:100A0C000B4B9B6903F00403FB60FB6840233B61C9
:100A1C0002237B610223FB6107F110031946054891
:100A2C0000F046FA00BF2037BD4680BD00040040F0
:100A3C00001002400008014080B588B000AF78601B
:100A4C0007F1100300221A605A609A60DA607B6822
:100A5C001B68154A934223D1144BDB69134A43F4A8
:100A6C000033D361114BDB6903F40033FB60FB688B
:100A7C000E4B9B690D4A43F0040393610B4B9B692E
:100A8C0003F00403BB60BB680C233B6102237B6156
:100A9C000223FB6107F110031946054800F008FA20
:100AAC0000BF2037BD4680BD00440040001002400E
:100ABC000008014080B400AFFEE780B400AFFEE751
:100ACC0080B400AFFEE780B400AFFEE780B400AFA7
:100ADC00FEE780B400AF00BFBD4680BC704780B459
:100AEC0000AF00BFBD4680BC704780B400AF00BFF4
:100AFC00BD4680BC704780B500AF00F0AFF800BFBA
:100B0C0080BD80B500AF4FF4005000F06DFB00BF0E
:100B1C0080BD80B400AF00BFBD4680BC70470000F4
:100B2C0080B483B000AF7860064A7B6852F82330FB
:100B3C00012B0CBF01230023DBB218460C37BD463A
:100B4C0080BC70471C01002080B483B000AF78607B
:100B5C003960094B1B683A6892FBF3F207497B68D2
:100B6C0041F82320064A7B68002142F8231000BF7D
:100B7C000C37BD4680BC70470000002014010020DB
:100B8C001C0100200C480D490D4A002302E0D458EA
:100B9C00C4500433C4188C42F9D30A4A0A4C0023BB
:100BAC0001E013600432A242FBD3FFF7B2FF01F065
:100BBC008DFDFFF71DFD7047000000201C0000207C
:100BCC00782700081C00002028010020FEE7000008
:100BDC0080B500AF084B1B68074A43F01003136045
:100BEC00032000F023F9002000F008F8FFF7A2FE24
:100BFC000023184680BD00BF0020024080B582B0A3
:100C0C0000AF7860124B1A68124B1B7819464FF4E0
:100C1C007A73B3FBF1F3B2FBF3F3184600F03BF934
:100C2C000346002B01D001230EE07B680F2B0AD862
:100C3C00002279684FF0FF3000F003F9064A7B6818
:100C4C001360002300E0012318460837BD4680BD21
:100C5C0010000020180000201400002080B400AF09
:100C6C00054B1B781A46054B1B681344034A13604B
:100C7C0000BFBD4680BC7047180000202401002036
:100C8C0080B400AF024B1B681846BD4680BC704751
:100C9C002401002080B485B000AF78607B6803F03D
:100CAC000703FB600C4BDB68BB60BA684FF6FF03B5
:100CBC001340BB60FB681A02BB68134343F0BF636D
:100CCC0043F40033BB60044ABB68D36000BF1437E5
:100CDC00BD4680BC704700BF00ED00E080B400AFA3
:100CEC00044BDB681B0A03F007031846BD4680BCA7
:100CFC00704700BF00ED00E080B483B000AF034646
:100D0C00FB7197F90730002B0BDBFB7903F01F020B
:100D1C00064997F907305B09012000FA02F241F805
:100D2C00232000BF0C37BD4680BC704700E100E0BB
:100D3C0080B483B000AF03463960FB7197F907307C
:100D4C00002B0ADB3B68DAB20C4997F90730120129
:100D5C00D2B20B4483F800230AE03B68DAB20849AC
:100D6C00FB7903F00F03043B1201D2B20B441A7649
:100D7C0000BF0C37BD4680BC704700BF00E100E0EF
:100D8C0000ED00E080B489B000AFF860B9607A6023
:100D9C00FB6803F00703FB61FB69C3F10703042B3A
:100DAC0028BF0423BB61FB690433062B02D9FB6902
:100DBC00033B00E000237B614FF0FF32BB6902FA7A
:100DCC0003F3DA43BB681A407B699A404FF0FF315A
:100DDC007B6901FA03F3D9437B680B401343184634
:100DEC002437BD4680BC704780B582B000AF7860B8
:100DFC007B68013BB3F1807F01D301230FE00A4AEA
:100E0C007B68013B53600F214FF0FF30FFF790FFE1
:100E1C00054B00229A60044B07221A6000231846E7
:100E2C000837BD4680BD00BF10E000E080B582B041
:100E3C0000AF78607868FFF72DFF00BF0837BD461C
:100E4C0080BD80B586B000AF0346B9607A60FB7395
:100E5C0000237B61FFF742FF78617A68B968786993
:100E6C00FFF790FF024697F90F3011461846FFF72F
:100E7C005FFF00BF1837BD4680BD80B582B000AFA4
:100E8C000346FB7197F907301846FFF735FF00BF93
:100E9C000837BD4680BD80B582B000AF78607868F9
:100EAC00FFF7A2FF034618460837BD4680BD000079
:100EBC0080B48BB000AF7860396000237B62002374
:100ECC003B6269E101227B6A02FA03F3FB613B6836
:100EDC001B68FA691340BB61BA69FB699A4240F01E
:100EEC0058813B685B689A4A93425ED0984A934219
:100EFC0075D8984A934258D0964A93426FD8964ADE
:100F0C00934252D0944A934269D8944A93424CD01B
:100F1C00924A934263D8924A934246D0904A934263
:100F2C005DD8122B2AD8122B59D801A252F823F0D3
:100F3C00B70F0008910F0008A30F0008E50F000879
:100F4C00EB0F0008EB0F0008EB0F0008EB0F00088D
:100F5C00EB0F0008EB0F0008EB0F0008EB0F00087D
:100F6C00EB0F0008EB0F0008EB0F0008EB0F00086D
:100F7C00EB0F0008990F0008AD0F0008794A934257
:100F8C0013D02CE03B68DB683B6229E03B68DB68F4
:100F9C0004333B6224E03B68DB6808333B621FE0B0
:100FAC003B68DB680C333B621AE03B689B68002BA8
:100FBC0002D104233B6213E03B689B68012B05D1F3
:100FCC0008233B627B68FA691A6109E008233B62DB
:100FDC007B68FA695A6103E000233B6200E000BFC2
:100FEC00BB69FF2B01D87B6801E07B6804337B6114
:100FFC00BB69FF2B02D87B6A9B0002E07B6A083B33
:10100C009B003B617B691A680F213B6901FA03F372
:10101C00DB431A40396A3B6901FA03F31A437B69D3
:10102C001A603B685B6803F08053002B00F0B180C2
:10103C004D4B9B694C4A43F0010393614A4B9B69AE
:10104C0003F00103BB60BB68484A7B6A9B08023310
:10105C0052F82330FB607B6A03F003039B000F22E2
:10106C0002FA03F3DB43FA681340FB607B68404AE7
:10107C00934213D07B683F4A93420DD07B683E4A23
:10108C00934207D07B683D4A934201D1032306E08B
:10109C00042304E0022302E0012300E000237A6A27
:1010AC0002F0030292009340FA681343FB602F494D
:1010BC007B6A9B080233FA6841F823203B685B6823
:1010CC0003F48033002B06D02D4B1A682C49BB69D6
:1010DC0013430B6006E02A4B1A68BB69DB432849B3
:1010EC0013400B603B685B6803F40033002B06D0A5
:1010FC00234B5A682249BB6913434B6006E0204BD3
:10110C005A68BB69DB431E4913404B603B685B6804
:10111C0003F48013002B06D0194B9A681849BB694D
:10112C0013438B6006E0164B9A68BB69DB4314498A
:10113C0013408B603B685B6803F40013002B21D0D9
:10114C000F4BDA680E49BB691343CB6021E000BF3B
:10115C00000032100000311000002210000021109D
:10116C00000012100000111000100240000001409D
:10117C0000080140000C0140001001400014014027
:10118C00000401400B4BDA68BB69DB43094913408F
:10119C00CB607B6A01337B623B681A687B6A22FAFC
:1011AC0003F3002B7FF48EAE00BF00BF2C37BD467F
:1011BC0080BC70470004014080B483B000AF7860FD
:1011CC000B467B8013467B707B78002B03D07A8890
:1011DC007B681A6103E07B881A047B681A6100BF84
:1011EC000C37BD4680BC704780B582B000AF03465B
:1011FC00FB80084B5A69FB881340002B06D0054A2C
:10120C00FB885361FB88184600F006F800BF0837CE
:10121C00BD4680BD0004014080B483B000AF0346DE
:10122C00FB8000BF0C37BD4680BC704780B586B0D4
:10123C0000AF78607B68002B01D101236CE27B68E6
:10124C001B6803F00103002B00F08780924B5B6856
:10125C0003F00C03042B0CD08F4B5B6803F00C03D6
:10126C00082B12D18C4B5B6803F48033B3F5803FB1
:10127C000BD1894B1B6803F40033002B6CD07B68BB
:10128C005B68002B68D1012346E27B685B68B3F591
:10129C00803F06D1804B1B687F4A43F48033136038
:1012AC002EE07B685B68002B0CD17B4B1B687A4A69
:1012BC0023F480331360784B1B68774A23F4802324
:1012CC0013601DE07B685B68B3F5A02F0CD1724BEB
:1012DC001B68714A43F4802313606F4B1B686E4A82
:1012EC0043F4803313600BE06B4B1B686A4A23F4A6
:1012FC0080331360684B1B68674A23F480231360A8
:10130C007B685B68002B13D0FFF7BAFC386108E0F0
:10131C00FFF7B6FC02463B69D31A642B01D90323B1
:10132C00FAE15D4B1B6803F40033002BF0D014E0A2
:10133C00FFF7A6FC386108E0FFF7A2FC02463B6908
:10134C00D31A642B01D90323E6E1534B1B6803F436
:10135C000033002BF0D100E000BF7B681B6803F06A
:10136C000203002B63D04C4B5B6803F00C03002B87
:10137C000BD0494B5B6803F00C03082B1CD1464B7C
:10138C005B6803F48033002B16D1434B1B6803F0CE
:10139C000203002B05D07B681B69012B01D00123B4
:1013AC00BAE13D4B1B6823F0F8027B685B69DB00FC
:1013BC00394913430B603AE07B681B69002B20D042
:1013CC00364B01221A60FFF75BFC386108E0FFF72F
:1013DC0057FC02463B69D31A022B01D903239BE12C
:1013EC002D4B1B6803F00203002BF0D02A4B1B681B
:1013FC0023F0F8027B685B69DB00274913430B6021
:10140C0015E0264B00221A60FFF73AFC386108E021
:10141C00FFF736FC02463B69D31A022B01D9032392
:10142C007AE11D4B1B6803F00203002BF0D17B68A3
:10143C001B6803F00803002B3AD07B689B69002BD8
:10144C0019D0174B01221A60FFF71AFC386108E01B
:10145C00FFF716FC02463B69D31A022B01D9032372
:10146C005AE10D4B5B6A03F00203002BF0D0012014
:10147C0000F0D8FA1CE00A4B00221A60FFF700FCBF
:10148C0038610FE0FFF7FCFB02463B69D31A022BD5
:10149C0008D9032340E100BF001002400000424283
:1014AC00800442429E4B5B6A03F00203002BE9D19D
:1014BC007B681B6803F00403002B00F0A68000235C
:1014CC00FB75974BDB6903F08053002B0DD1944BCC
:1014DC00DB69934A43F08053D361914BDB6903F092
:1014EC008053BB60BB680123FB758E4B1B6803F4F8
:1014FC008073002B18D18B4B1B688A4A43F4807382
:10150C001360FFF7BDFB386108E0FFF7B9FB02463B
:10151C003B69D31A642B01D90323FDE0814B1B6873
:10152C0003F48073002BF0D07B68DB68012B06D1B1
:10153C007B4B1B6A7A4A43F0010313622DE07B68F4
:10154C00DB68002B0CD1764B1B6A754A23F0010328
:10155C001362734B1B6A724A23F0040313621CE080
:10156C007B68DB68052B0CD16D4B1B6A6C4A43F016
:10157C00040313626A4B1B6A694A43F0010313624A
:10158C000BE0674B1B6A664A23F001031362644B42
:10159C001B6A634A23F0040313627B68DB68002B2D
:1015AC0015D0FFF76DFB38610AE0FFF769FB0246C7
:1015BC003B69D31A41F28832934201D90323ABE041
:1015CC00574B1B6A03F00203002BEED014E0FFF71D
:1015DC0057FB38610AE0FFF753FB02463B69D31A0D
:1015EC0041F28832934201D9032395E04C4B1B6A9C
:1015FC0003F00203002BEED1FB7D012B05D1484BF0
:10160C00DB69474A23F08053D3617B68DB69002B8D
:10161C0000F08180424B5B6803F00C03082B61D017
:10162C007B68DB69022B46D13F4B00221A60FFF727
:10163C0027FB386108E0FFF723FB02463B69D31A0E
:10164C00022B01D9032367E0354B1B6803F00073B1
:10165C00002BF0D17B681B6AB3F5803F08D1304B6F
:10166C005B6823F400327B689B682D4913434B6005
:10167C002B4B5B6823F474127B68196A7B685B6A7A
:10168C000B43274913434B60274B01221A60FFF78A
:10169C00F7FA386108E0FFF7F3FA02463B69D31A10
:1016AC00022B01D9032337E01D4B1B6803F0007399
:1016BC00002BF0D02FE01C4B00221A60FFF7E0FA51
:1016CC00386108E0FFF7DCFA02463B69D31A022BBB
:1016DC0001D9032320E0124B1B6803F00073002B8D
:1016EC00F0D118E07B68DB69012B01D1012313E0F9
:1016FC000B4B5B68FB60FB6803F480327B681B6AF6
:10170C009A4206D1FB6803F470127B685B6A9A42BA
:10171C0001D0012300E0002318461837BD4680BDD8
:10172C0000100240007000406000424280B584B05E
:10173C0000AF786039607B68002B01D10123D0E0C9
:10174C006A4B1B6803F007033A689A4210D9674B3F
:10175C001B6823F0070265493B6813430B60634B1E
:10176C001B6803F007033A689A4201D00123B8E0E2
:10177C007B681B6803F00203002B20D07B681B687E
:10178C0003F00403002B05D0594B5B68584A43F413
:10179C00E06353607B681B6803F00803002B05D0E3
:1017AC00534B5B68524A43F460535360504B5B6835
:1017BC0023F0F0027B689B684D4913434B607B68B8
:1017CC001B6803F00103002B40D07B685B68012B86
:1017DC0007D1474B1B6803F40033002B15D10123B1
:1017EC007FE07B685B68022B07D1414B1B6803F0E1
:1017FC000073002B09D1012373E03D4B1B6803F0F0
:10180C000203002B01D101236BE0394B5B6823F001
:10181C0003027B685B68364913434B60FFF730FA71
:10182C00F8600AE0FFF72CFA0246FB68D31A41F283
:10183C008832934201D9032353E02D4B5B6803F0AC
:10184C000C027B685B689B009A42EBD1274B1B68B0
:10185C0003F007033A689A4210D2244B1B6823F01A
:10186C00070222493B6813430B60204B1B6803F0B3
:10187C0007033A689A4201D0012332E07B681B6867
:10188C0003F00403002B08D0194B5B6823F4E062CF
:10189C007B68DB68164913434B607B681B6803F05D
:1018AC000803002B09D0124B5B6823F460527B6851
:1018BC001B69DB000E4913434B6000F021F8024614
:1018CC000B4B5B681B0903F00F030A49CB5C22FA34
:1018DC0003F3094A1360094B1B681846FFF78EF98E
:1018EC00002318461037BD4680BD00BF00200240C3
:1018FC00001002405827000810000020140000209F
:10190C0090B48AB000AF2A4B3C1D0FCB84E80F007B
:10191C0040F201233B800023FB610023BB610023C9
:10192C007B6200237B6100233B62224B5B68FB6183
:10193C00FB6903F00C03042B02D0082B03D02DE021
:10194C001D4B3B622DE0FB699B0C03F00F0307F171
:10195C002802134413F8243C7B61FB6903F48033A5
:10196C00002B13D0134B5B685B0C03F0010307F1E6
:10197C002802134413F8283CBB617B690E4A02FB16
:10198C0003F2BB69B2FBF3F37B6204E07B690B4AA5
:10199C0002FB03F37B627B6A3B6202E0064B3B6219
:1019AC0000BF3B6A18462837BD4690BC704700BF45
:1019BC00482700080010024000127A0000093D0080
:1019CC0080B400AF024B1B681846BD4680BC704704
:1019DC001000002080B500AFFFF7F2FF0246054B68
:1019EC005B681B0A03F007030349CB5C22FA03F381
:1019FC00184680BD001002406827000880B500AF73
:101A0C00FFF7DEFF0246054B5B68DB0A03F00703BA
:101A1C000349CB5C22FA03F3184680BD0010024048
:101A2C006827000880B485B000AF78600A4B1B684B
:101A3C000A4AA2FB03235B0A7A6802FB03F3FB60EE
:101A4C0000BFFB685A1EFA60002BF9D100BF00BF23
:101A5C001437BD4680BC704710000020D34D621077
:101A6C0080B582B000AF78607B68002B01D1012378
:101A7C0041E07B6893F83D30DBB2002B06D17B68EC
:101A8C00002283F83C207868FEF786FF7B680222F0
:101A9C0083F83D207B681A687B680433194610462E
:101AAC0000F05AFA7B68012283F846207B680122F9
:101ABC0083F83E207B68012283F83F207B6801225B
:101ACC0083F840207B68012283F841207B68012247
:101ADC0083F842207B68012283F843207B68012233
:101AEC0083F844207B68012283F845207B6801221F
:101AFC0083F83D20002318460837BD4680BD000002
:101B0C0080B485B000AF78607B6893F83D30DBB271
:101B1C00012B01D001233AE07B68022283F83D209F
:101B2C007B681B68DA687B681B6842F00102DA602C
:101B3C007B681B68184A93420ED07B681B68B3F114
:101B4C00804F09D07B681B68144A934204D07B6891
:101B5C001B68134A934211D17B681B689B6803F086
:101B6C000703FB60FB68062B10D07B681B681A68A8
:101B7C007B681B6842F001021A6007E07B681B68F7
:101B8C001A687B681B6842F001021A600023184631
:101B9C001437BD4680BC7047002C01400004004047
:101BAC000008004080B582B000AF78607B68002BE5
:101BBC0001D1012341E07B6893F83D30DBB2002B6F
:101BCC0006D17B68002283F83C20786800F039F855
:101BDC007B68022283F83D207B681A687B6804339B
:101BEC001946104600F0B8F97B68012283F84620AC
:101BFC007B68012283F83E207B68012283F83F201A
:101C0C007B68012283F840207B68012283F8412005
:101C1C007B68012283F842207B68012283F84320F1
:101C2C007B68012283F844207B68012283F84520DD
:101C3C007B68012283F83D20002318460837BD46F7
:101C4C0080BD80B483B000AF786000BF0C37BD4658
:101C5C0080BC704780B584B000AFF860B9607A6022
:101C6C00FB6893F83C30012B01D10223ACE0FB68FC
:101C7C00012283F83C207B680C2B00F29F8001A290
:101C8C0052F823F0C51C0008C91D0008C91D000826
:101C9C00C91D0008051D0008C91D0008C91D000844
:101CAC00C91D0008471D0008C91D0008C91D0008F2
:101CBC00C91D0008871D0008FB681B68B968184619
:101CCC0000F0ACF9FB681B689A69FB681B6842F072
:101CDC0008029A61FB681B689A69FB681B6822F012
:101CEC0004029A61FB681B689969BB681A69FB68F6
:101CFC001B680A439A6162E0FB681B68B968184666
:101D0C0000F0F2F9FB681B689A69FB681B6842F4E7
:101D1C0000629A61FB681B689A69FB681B6822F475
:101D2C0080629A61FB681B689969BB681B691A021F
:101D3C00FB681B680A439A6141E0FB681B68B96841
:101D4C00184600F03BFAFB681B68DA69FB681B68F5
:101D5C0042F00802DA61FB681B68DA69FB681B68F1
:101D6C0022F00402DA61FB681B68D969BB681A6946
:101D7C00FB681B680A43DA6121E0FB681B68B968E1
:101D8C00184600F085FAFB681B68DA69FB681B686B
:101D9C0042F40062DA61FB681B68DA69FB681B6855
:101DAC0022F48062DA61FB681B68D969BB681B6925
:101DBC001A02FB681B680A43DA6100E000BFFB688B
:101DCC00002283F83C20002318461037BD4680BD06
:101DDC0080B584B000AF786039607B6893F83C3094
:101DEC00012B01D10223B3E07B68012283F83C2054
:101DFC007B68022283F83D207B681B689B68FB6034
:101E0C00FB6823F07703FB60FB6823F47F43FB60E4
:101E1C007B681B68FA689A603B681B68B3F5005FC7
:101E2C003ED0B3F5005F00F28780B3F5805F00F021
:101E3C008580B3F5805F7FD8702B1AD0702B7BD840
:101E4C00602B50D0602B77D8502B3CD0502B73D8B4
:101E5C00402B58D0402B6FD8302B64D0302B6BD804
:101E6C00202B60D0202B67D8002B5CD0102B5AD0A5
:101E7C0062E07B6818683B6899683B685A683B6805
:101E8C00DB6800F0CAFA7B681B689B68FB60FB6828
:101E9C0043F07703FB607B681B68FA689A604EE03E
:101EAC007B6818683B6899683B685A683B68DB68D4
:101EBC0000F0B3FA7B681B689A687B681B6842F475
:101ECC0080429A603BE07B6818683B6859683B68C5
:101EDC00DB681A4600F02AFA7B681B68502118460A
:101EEC0000F081FA2BE07B6818683B6859683B6806
:101EFC00DB681A4600F048FA7B681B6860211846BC
:101F0C0000F071FA1BE07B6818683B6859683B6805
:101F1C00DB681A4600F00AFA7B681B6840211846F9
:101F2C0000F061FA0BE07B681A683B681B68194685
:101F3C00104600F058FA02E000BF00E000BF7B68DA
:101F4C00012283F83D207B68002283F83C2000238B
:101F5C0018461037BD4680BD80B485B000AF7860A0
:101F6C0039607B681B68FB607B68294A93420BD005
:101F7C007B68B3F1804F07D07B68264A934203D02D
:101F8C007B68254A934208D1FB6823F07003FB6001
:101F9C003B685B68FA681343FB607B681C4A93429E
:101FAC000BD07B68B3F1804F07D07B68194A934202
:101FBC0003D07B68184A934208D1FB6823F4407322
:101FCC00FB603B68DB68FA681343FB60FB6823F03B
:101FDC0080023B685B691343FB607B68FA681A609C
:101FEC003B689A687B68DA623B681A687B689A621D
:101FFC007B68074A934203D13B681A697B681A6372
:10200C007B6801225A6100BF1437BD4680BC704703
:10201C00002C0140000400400008004080B487B050
:10202C0000AF786039607B681B6A23F001027B6823
:10203C001A627B681B6A7B617B685B683B617B68AF
:10204C009B69FB60FB6823F07003FB60FB6823F06B
:10205C000303FB603B681B68FA681343FB607B69F6
:10206C0023F002037B613B689B687A6913437B61B5
:10207C007B681C4A93420CD17B6923F008037B617B
:10208C003B68DB687A6913437B617B6923F004034B
:10209C007B617B68134A934211D13B6923F48073B3
:1020AC003B613B6923F400733B613B685B693A69B4
:1020BC0013433B613B689B693A6913433B617B6803
:1020CC003A695A607B68FA689A613B685A687B681F
:1020DC005A637B687A691A6200BF1C37BD4680BCA4
:1020EC00704700BF002C014080B487B000AF78600F
:1020FC0039607B681B6A23F010027B681A627B686C
:10210C001B6A7B617B685B683B617B689B69FB60DE
:10211C00FB6823F4E043FB60FB6823F44073FB6033
:10212C003B681B681B02FA681343FB607B6923F056
:10213C0020037B613B689B681B017A6913437B61BD
:10214C007B681D4A93420DD17B6923F080037B6130
:10215C003B68DB681B017A6913437B617B6923F065
:10216C0040037B617B68144A934213D13B6923F48F
:10217C0080633B613B6923F400633B613B685B69B3
:10218C009B003A6913433B613B689B699B003A692E
:10219C0013433B617B683A695A607B68FA689A61C1
:1021AC003B685A687B689A637B687A691A6200BFDD
:1021BC001C37BD4680BC7047002C014080B487B0F2
:1021CC0000AF786039607B681B6A23F480727B688F
:1021DC001A627B681B6A7B617B685B683B617B680E
:1021EC00DB69FB60FB6823F07003FB60FB6823F08A
:1021FC000303FB603B681B68FA681343FB607B6955
:10220C0023F400737B613B689B681B027A69134360
:10221C007B617B681D4A93420DD17B6923F400637B
:10222C007B613B68DB681B027A6913437B617B69CA
:10223C0023F480637B617B68144A934213D13B691E
:10224C0023F480533B613B6923F400533B613B68AF
:10225C005B691B013A6913433B613B689B691B013A
:10226C003A6913433B617B683A695A607B68FA6848
:10227C00DA613B685A687B68DA637B687A691A6250
:10228C0000BF1C37BD4680BC704700BF002C01400E
:10229C0080B487B000AF786039607B681B6A23F428
:1022AC0080527B681A627B681B6A3B617B685B6847
:1022BC007B617B68DB69FB60FB6823F4E043FB60BC
:1022CC00FB6823F44073FB603B681B681B02FA68D5
:1022DC001343FB603B6923F400533B613B689B68F1
:1022EC001B033A6913433B617B680F4A934209D144
:1022FC007B6923F480437B613B685B699B017A6952
:10230C0013437B617B687A695A607B68FA68DA618F
:10231C003B685A687B681A647B683A691A6200BF2A
:10232C001C37BD4680BC7047002C014080B487B080
:10233C0000AFF860B9607A60FB681B6A7B61FB6870
:10234C001B6A23F00102FB681A62FB689B693B6104
:10235C003B6923F0F0033B617B681B013A69134333
:10236C003B617B6923F00A037B617A69BB68134389
:10237C007B61FB683A699A61FB687A691A6200BFF3
:10238C001C37BD4680BC704780B487B000AFF86086
:10239C00B9607A60FB681B6A23F01002FB681A6252
:1023AC00FB689B697B61FB681B6A3B617B6923F45F
:1023BC0070437B617B681B037A6913437B613B69C8
:1023CC0023F0A0033B61BB681B013A6913433B61DB
:1023DC00FB687A699A61FB683A691A6200BF1C371C
:1023EC00BD4680BC704780B485B000AF7860396062
:1023FC007B689B68FB60FB6823F07003FB603A68AA
:10240C00FB68134343F00703FB607B68FA689A6030
:10241C0000BF1437BD4680BC704780B487B000AF96
:10242C00F860B9607A603B60FB689B687B617B6994
:10243C0023F47F437B613B681A027B681A43BB68B9
:10244C0013437A6913437B61FB687A699A6000BF16
:10245C001C37BD4680BC704780B485B000AF786037
:10246C0039607B6893F83C30012B01D1022346E0A4
:10247C007B68012283F83C207B68022283F83D2094
:10248C007B681B685B68FB607B681B689B68BB6038
:10249C00FB6823F07003FB603B681B68FA6813430E
:1024AC00FB607B681B68FA685A607B681B68164A7D
:1024BC0093420ED07B681B68B3F1804F09D07B68C8
:1024CC001B68124A934204D07B681B68104A9342E3
:1024DC000CD1BB6823F08003BB603B685B68BA68B7
:1024EC001343BB607B681B68BA689A607B680122E7
:1024FC0083F83D207B68002283F83C20002318469B
:10250C001437BD4680BC7047002C014000040040CD
:10251C000008004080B582B000AF78607B68002B6B
:10252C0001D101233FE07B6893F83D30DBB2002BF7
:10253C0006D17B68002283F83C207868FEF77CFA91
:10254C007B68242283F83D207B681B68DA687B68F3
:10255C001B6822F40052DA60786800F029F87B6876
:10256C001B681A697B681B6822F490421A617B68AD
:10257C001B685A697B681B6822F02A025A617B68C7
:10258C001B68DA687B681B6842F40052DA607B686F
:10259C0000221A647B68202283F83D207B6820226D
:1025AC0083F83E20002318460837BD4680BD000046
:1025BC0080B584B000AF78607B681B681B6923F41E
:1025CC0040517B68DA687B681B680A431A617B6838
:1025DC009A687B681B691A437B685B691343BB6011
:1025EC007B681B68DB6823F4B05323F00C037A6818
:1025FC001268B9680B43D3607B681B685B6923F472
:10260C0040717B689A697B681B680A435A617B68D6
:10261C001B682C4A934203D1FFF7F0F9F86002E0F3
:10262C00FFF7D8F9F860FA6813469B0013449A0038
:10263C001A447B685B689B00B2FBF3F3224AA2FB53
:10264C0003235B091901FA6813469B0013449A0093
:10265C001A447B685B689B00B2FBF3F21A4BA3FB3A
:10266C0002035B09642000FB03F3D31A1B01323312
:10267C00154AA2FB03235B0903F0F0031944FA6823
:10268C0013469B0013449A001A447B685B689B00BA
:10269C00B2FBF3F20C4BA3FB02035B09642000FBBF
:1026AC0003F3D31A1B013233074AA2FB03235B0942
:1026BC0003F00F027B681B680A449A6000BF103756
:1026CC00BD4680BD003801401F85EB5170B500261A
:1026DC000C4D0D4C641BA410A64209D100F022F83D
:1026EC0000260A4D0A4C641BA410A64205D170BDED
:1026FC0055F8043B98470136EEE755F8043B9847EC
:10270C000136F2E7702700087027000870270008D0
:10271C007427000803460244934200D1704703F823
:10272C00011BF9E7F8B500BFF8BC08BC9E46704722
:0C273C00F8B500BFF8BC08BC9E46704712
:1027480002030405060708090A0B0C0D0E0F1010EA
:102758000000000000000000010203040607080949
:0827680000000000010203045F
:04277000310100082B
:042774000D0100084B
:102778000A00000088130000B80B0000D007000012
:0C2788000024F40010000000010000001C
:0400000508000B9153
:00000001FF
