:020000040800F2
:1000000000500020951800085114000857140008EB
:100010005D14000863140008691400080000000063
:100020000000000000000000000000006F14000845
:100030007B140008000000008714000893140008D7
:10004000DD180008DD180008DD180008DD180008BC
:10005000DD180008DD180008DD180008DD180008AC
:10006000DD180008DD180008DD180008DD1800089C
:10007000DD180008DD180008DD180008DD1800088C
:10008000DD180008DD180008DD180008DD1800087C
:10009000DD180008DD180008DD180008DD1800086C
:1000A000DD180008DD180008DD180008DD1800085C
:1000B000DD180008A1140008DD180008DD1800088C
:1000C000DD180008DD180008DD180008DD1800083C
:1000D000DD180008DD180008B5140008DD18000858
:1000E000C9140008DD180008DD1800080000000031
:1000F0000000000000000000000000000000000000
:0C01000000000000000000005FF808F1A3
:10010C0010B5054C237833B9044B13B10448AFF345
:10011C0000800123237010BD94000020000000001B
:10012C00444A000808B5034B1BB103490348AFF31D
:10013C00008008BD0000000098000020444A000820
:10014C0080B500AF2A4B1B68042B47D801A252F88C
:10015C0023F000BF75010008E901000889010008BF
:10016C00A9010008C9010008214B02221A60214B89
:10017C001B681946002001F009FA36E0002001F056
:10018C00F1F90346002B2BD0194B03221A601A4BA2
:10019C001B681946002001F0F9F921E0002001F05C
:1001AC00E1F90346002B1DD0114B04221A60134BAE
:1001BC001B681946002001F0E9F913E0002001F05A
:1001CC00D1F90346002B0FD0094B02221A60094BC0
:1001DC001B681946002001F0D9F905E000BF04E0C6
:1001EC0000BF02E000BF00E000BF00BF80BD00BF49
:1001FC00B0000020180000201C000020200000206F
:10020C0080B500AF2A4B1B68042B47D801A252F8CB
:10021C0023F000BF35020008A902000849020008BB
:10022C006902000889020008214B03221A60214B45
:10023C001B681946012001F0A9F936E0012001F0F4
:10024C0091F90346002B2BD0194B03221A60194B42
:10025C001B681946012001F099F921E0012001F0F9
:10026C0081F90346002B1DD0114B04221A60124B4E
:10027C001B681946012001F089F913E0012001F0F7
:10028C0071F90346002B0FD0094B02221A600B4B5D
:10029C001B681946012001F079F905E000BF04E064
:1002AC0000BF02E000BF00E000BF00BF80BD00BF88
:1002BC00B40000201C0000202000002018000020AA
:1002CC0080B500AFFFF73CFFFFF79AFF2F4B1B6881
:1002DC00042B1ED0042B28DC022B02D0032B0CD0B9
:1002EC0023E001224FF48061294801F0AEFE002288
:1002FC000821284801F0A9FE18E000224FF4806183
:10030C00234801F0A2FE01220821224801F09DFEA3
:10031C000CE001224FF480611D4801F096FE012291
:10032C0008211C4801F091FE00E000BF1A4B1B682D
:10033C00042B1CD0042B25DC022B02D0032B0BD05E
:10034C0020E001222021134801F07FFE0022102121
:10035C00104801F07AFE16E0002220210D4801F031
:10036C0074FE012210210B4801F06FFE0BE00122FC
:10037C002021084801F069FE01221021054801F0F6
:10038C0064FE00E000BF00BF80BD00BFB0000020D5
:10039C0000080140000C0140B400002080B483B080
:1003AC0000AF7860094A7B6852F82330002B06D0E6
:1003BC00064A7B68002142F82310012300E0002349
:1003CC0018460C37BD4680BC704700BFFC000020AF
:1003DC0080B483B000AF7860094A7B6852F8233050
:1003EC00002B06D0064A7B68002142F8231001231B
:1003FC0000E0002318460C37BD4680BC704700BF98
:10040C000C01002080B483B000AF7860044A7B6894
:10041C00012142F8231000BF0C37BD4680BC704749
:10042C00FC00002080B483B000AF7860044A7B6885
:10043C00012142F8231000BF0C37BD4680BC704729
:10044C000C01002080B483B000AF7860074A7B6851
:10045C00002142F82310064A7B68002142F8231041
:10046C0000BF0C37BD4680BC704700BFFC000020AD
:10047C000C01002080B483B000AF7860074B1A6881
:10048C00074B1B6892FBF3F206497B6841F823206B
:10049C0000BF0C37BD4680BC704700BF1400002065
:1004AC0010000020DC00002080B582B000AF0023DB
:1004BC007B60B9E0614A7B689B00134459785F4AC2
:1004CC007B6802F823105D4A7B689B001344997883
:1004DC005A4A7B689B0013440A465A707B68032B6C
:1004EC003ED801A252F823F0050500081F050008AC
:1004FC0039050008530500080221514801F08EFD12
:10050C00034619464D4A7B689B0013440A469A7071
:10051C0027E010214A4801F081FD03461946474A5D
:10052C007B689B0013440A469A701AE001214548E7
:10053C0001F074FD03461946404A7B689B00134446
:10054C000A469A700DE001213D4801F067FD034613
:10055C0019463A4A7B689B0013440A469A7000E09D
:10056C0000BF364A7B6812F8232034497B689B0015
:10057C000B445B789A4254D1304A7B689B001344FD
:10058C005A782E497B689B000B449B789A4248D141
:10059C002A4A7B689B001344DA7828497B689B00C5
:1005AC000B449B789A421CD0244A7B689B001344D2
:1005BC009978224A7B689B0013440A46DA701F4ADA
:1005CC007B689B0013449B78002B06D17868FFF75F
:1005DC0019FF7868FFF74EFF23E07868FFF732FFCA
:1005EC001FE0194A7B6852F823305A1E16497B6863
:1005FC0041F82320144A7B6852F82330002B10D189
:10060C000E4A7B689B0013449B78002B03D17868BF
:10061C00FFF708FF02E07868FFF714FF7868FFF730
:10062C0029FF7B6801337B607B68032B7FF742AF2C
:10063C0000BF00BF0837BD4680BD00BFEC000020E6
:10064C0000080140000C0140DC00002080B500AF28
:10065C000D4B1B68002B02D0012B04D011E00A4B70
:10066C0001221A600DE00020FFF798FE0346002BD4
:10067C0002D0054B05221A60FFF722FE00F0D4FFD2
:10068C0000BF00BF80BD00BFC000002080B500AF20
:10069C005D4B1B68053B032B00F2B38001A252F8A3
:1006AC0023F000BFC1060008CD060008350700087E
:1006BC009D07000801F01CF8534B06221A60A0E0BD
:1006CC0001224FF48061514801F0BFFC0022082147
:1006DC004F4801F0BAFC012220214D4801F0B5FC35
:1006EC00002210214A4801F0B0FC01F001F8012071
:1006FC00FFF754FE0346002B02D0434B07221A602F
:10070C000020FFF74BFE0346002B75D03E4B092211
:10071C001A60404B1B68404A82FB03129211DB1794
:10072C00D31A3E4A136067E000224FF480613748C9
:10073C0001F08BFC01220821354801F086FC0022D7
:10074C002021334801F081FC01221021304801F0B6
:10075C007CFC00F0CDFF0120FFF720FE0346002BB0
:10076C0002D0294B08221A600020FFF717FE03461F
:10077C00002B43D0244B0A221A60294B1B68264AB3
:10078C0082FB03129211DB17D31A244A136035E053
:10079C0001224FF480611D4801F057FC0122082111
:1007AC001B4801F052FC01222021194801F04DFC9C
:1007BC0001221021164801F048FC00F099FF01209D
:1007CC00FFF7ECFD0346002B02D00F4B06221A60FC
:1007DC000020FFF7E3FD0346002B11D00A4B0B2240
:1007EC001A60104B1B680C4A82FB03129211DB1728
:1007FC00D31A0A4A136003E000BF02E000BF00E016
:10080C0000BF00BF80BD00BFC00000200008014039
:10081C00000C014018000020D34D6210BC000020D9
:10082C001C0000202000002080B500AF534B1B683B
:10083C000C3B042B00F2948001A252F823F000BF71
:10084C006108000891080008CF0800080709000893
:10085C00450900084A4B4FF4FA721A60494B40F2B2
:10086C0026221A60484B00221A600320FFF796FDDF
:10087C000346002B76D0414B0D221A60434B0D22C0
:10088C001A606FE00320FFF789FD0346002B05D0AB
:10089C003A4B0C221A603D4B0C221A603C4B1B68E5
:1008AC00022B02D1354B0E221A60394B1B68032BDD
:1008BC0003D0374B1B68042B56D1304B10221A60D7
:1008CC0052E00320FFF76AFD0346002B05D02B4BAB
:1008DC000C221A602D4B0C221A60012000F032FE03
:1008EC00034640F6B832934240DC244B0F221A6088
:1008FC006421032000F04AFE38E00320FFF74EFD90
:10090C000346002B05D01D4B0C221A601F4B0C22EA
:10091C001A601F4B1B68032B2AD1184B10221A602C
:10092C00174B4FF4FA721A60164B40F226221A60DB
:10093C00154B00221A601BE00320FFF72FFD034626
:10094C00002B05D00D4B0C221A60104B0C221A6098
:10095C000F4B1B68022B0DD1084B0E221A6009E0BD
:10096C0000BF08E000BF06E000BF04E000BF02E0EB
:10097C0000BF00E000BF00BF80BD00BF0000002032
:10098C00080000200C000020B8000020040000200B
:10099C00B400002080B500AF534B1B680C3B042BFC
:1009AC0000F2948001A252F823F000BFCD09000898
:1009BC00FD0900083B0A0008730A0008B10A000888
:1009CC004A4B4FF4FA721A60494B40F226221A60D5
:1009DC00484B00221A600320FFF7E0FC0346002B73
:1009EC0076D0454B0D221A603F4B0D221A606FE0FA
:1009FC000320FFF7D3FC0346002B05D03E4B0C2203
:100A0C001A60394B0C221A603C4B1B68022B02D12A
:100A1C00354B0E221A60394B1B68032B03D0374B16
:100A2C001B68042B56D1304B10221A6052E0032065
:100A3C00FFF7B4FC0346002B05D02F4B0C221A6099
:100A4C00294B0C221A60002000F07CFD034640F676
:100A5C00B832934240DC244B0F221A6064210220EE
:100A6C0000F094FD38E00320FFF798FC0346002BC0
:100A7C0005D0214B0C221A601B4B0C221A601F4B09
:100A8C001B68032B2AD1184B10221A60174B4FF4FA
:100A9C00FA721A60164B40F226221A60154B00228D
:100AAC001A601BE00320FFF779FC0346002B05D0EE
:100ABC00114B0C221A600C4B0C221A600F4B1B684A
:100ACC00022B0DD1084B0E221A6009E000BF08E082
:100ADC0000BF06E000BF04E000BF02E000BF00E082
:100AEC0000BF00BF80BD00BF040000200800002034
:100AFC000C000020B800002000000020B0000020F6
:100B0C0080B500AFFFF790FEFFF744FFA24B1B68C8
:100B1C000C3B042B00F2988001A252F823F000BF8A
:100B2C00410B0008550C0008610B0008790B0008FC
:100B3C00350C000800220421984801F086FA0022A6
:100B4C004FF40071964801F080FA964B1B68002216
:100B5C009A637CE000220421904801F076FA01228D
:100B6C004FF400718E4801F070FA70E0032000F031
:100B7C00F9FC0346002B28D08B4B1B68012B24D18E
:100B8C008A4B1A68874B1B689A63894B1B681946FA
:100B9C00032000F0FBFC844B1B68C3F10103824A69
:100BAC001360824B1B6840F2B532934204DC7F4BDE
:100BBC001B6864337D4A13607D4B1B68642B04DD1A
:100BCC007B4B1B68643B7A4A1360032000F0CAFC21
:100BDC000346002B3AD0744B1B68002B36D1714B5B
:100BEC001B6800229A63724B1B681946032000F0A5
:100BFC00CDFC6D4B1B68C3F101036B4A13606B4B4F
:100C0C001B6840F2B532934204DC684B1B686433BA
:100C1C00664A1360664B1B68642B17DD644B1B68BC
:100C2C00643B634A136011E0012204215B4801F02C
:100C3C000CFA00224FF40071594801F006FA594B96
:100C4C001B6800229A6302E000BF00E000BF594B12
:100C5C001B680C3B042B00F29A8001A252F823F083
:100C6C00810C00089B0D0008A30C0008BD0C0008AB
:100C7C00790D000800224FF48061484801F0E5F935
:100C8C0000224FF48071464801F0DFF9454B1B6898
:100C9C0000225A637EE000224FF480613F4801F04D
:100CAC00D4F901224FF480713D4801F0CEF971E086
:100CBC00022000F057FC0346002B28D03A4B1B684F
:100CCC00012B24D1394B1A68364B1B685A63384BAD
:100CDC001B681946022000F059FC334B1B68C3F10A
:100CEC000103314A1360314B1B6840F2B532934219
:100CFC0004DC2E4B1B6864332C4A13602C4B1B6892
:100D0C00642B04DD2A4B1B68643B294A13600220C8
:100D1C0000F028FC0346002B3BD0234B1B68002B18
:100D2C0037D1204B1B6800225A63214B1B68194694
:100D3C00022000F02BFC1C4B1B68C3F101031A4A68
:100D4C0013601A4B1B6840F2B532934204DC174B0C
:100D5C001B686433154A1360154B1B68642B18DD34
:100D6C00134B1B68643B124A136012E001224FF4D0
:100D7C0080610A4801F069F900224FF4807108483B
:100D8C0001F063F9074B1B6800225A6302E000BFB5
:100D9C0000E000BF00BF80BD00000020000C01403F
:100DAC00000801401C010020B80000200C000020AD
:100DBC00080000200400002080B500AF534B1B68D6
:100DCC000B2B6DD00B2B00F39E80092B02D00A2B22
:100DDC0033D098E00020FFF7E1FA0346002B02D055
:100DEC004A4B01221A600120FFF7D8FA0346002B68
:100DFC0007D0474B1B684FF47A7202FB03F3454A4A
:100E0C0013600220FFF7CAFA0346002B05D102201B
:100E1C00FFF7DEFA0346002B0CD03D4B1B68622B10
:100E2C0003DD3B4B05221A6004E0394B1B68013390
:100E3C00374A136000F002FD66E00020FFF7AEFABF
:100E4C000346002B02D0314B01221A600120FFF720
:100E5C00A5FA0346002B07D02D4B1B684FF47A7272
:100E6C0002FB03F32C4A13600220FFF797FA0346A8
:100E7C00002B05D10220FFF7ABFA0346002B0CD058
:100E8C00234B1B68582B03DD214B03221A6004E013
:100E9C001F4B1B6801331E4A136000F0CFFC33E07C
:100EAC000020FFF77BFA0346002B02D0174B0122E0
:100EBC001A600120FFF772FA0346002B07D0144B7F
:100ECC001B684FF47A7202FB03F3144A136002207E
:100EDC00FFF764FA0346002B05D10220FFF778FADE
:100EEC000346002B0CD00A4B1B68092B03DD084B67
:100EFC0002221A6004E0064B1B680133044A13609B
:100F0C0000F09CFC00E000BF00BF80BDC0000020D2
:100F1C00BC000020180000201C0000202000002035
:100F2C0080B500AF00F0D6FC00F01CF800F008F91A
:100F3C0000F0DCF800F058F8094801F02BFD002116
:100F4C00074801F0D1FD0421054801F0CDFDFFF764
:100F5C007DFBFFF79BFBFFF72FFFFFF7D1FDF6E7BC
:100F6C001C01002080B590B000AF07F118032822B7
:100F7C000021184603F01EF93B1D00221A605A602E
:100F8C009A60DA601A610223BB610123BB621023F1
:100F9C00FB6202237B630023BB634FF46013FB6390
:100FAC0007F11803184601F08BF80346002B01D00B
:100FBC0000F072F90F237B600223BB600023FB60FF
:100FCC004FF480633B6100237B613B1D022118467B
:100FDC0001F0F6FA0346002B01D000F05DF900BFDA
:100FEC004037BD4680BD000080B58EB000AF07F124
:100FFC00280300221A605A609A60DA6007F1200315
:10100C0000221A605A603B1D00221A605A609A60D6
:10101C00DA601A615A619A61324B334A1A60314B69
:10102C003F225A602F4B00229A602E4B40F2E7323F
:10103C00DA602C4B00221A612A4B00229A61294853
:10104C0001F058FC0346002B01D000F025F94FF4B9
:10105C008053BB6207F128031946224801F0ACFF0C
:10106C000346002B01D000F017F91E4801F0E4FCF8
:10107C000346002B01D000F00FF900233B62002344
:10108C007B6207F120031946164802F021FB034648
:10109C00002B01D000F000F960237B600023BB60C3
:1010AC000023FB6000237B613B1D002219460D4889
:1010BC0001F0C4FE0346002B01D000F0EDF83B1DFF
:1010CC0004221946074801F0B9FE0346002B01D053
:1010DC0000F0E2F8034800F03DF900BF3837BD4698
:1010EC0080BD00BF1C0100200004004080B500AF93
:1010FC00114B124A1A60104B4FF416525A600E4B99
:10110C0000229A600C4B0022DA600B4B00221A6111
:10111C00094B0C225A61084B00229A61064B0022A3
:10112C00DA61054802F044FB0346002B01D000F0C5
:10113C00B3F800BF80BD00BF640100200044004034
:10114C0080B588B000AF07F1100300221A605A6016
:10115C009A60DA60454B9B69444A43F010039361F3
:10116C00424B9B6903F01003FB60FB683F4B9B6990
:10117C003E4A43F0200393613C4B9B6903F02003F0
:10118C00BB60BB68394B9B69384A43F004039361DD
:10119C00364B9B6903F004037B607B68334B9B6984
:1011AC00324A43F008039361304B9B6903F0080308
:1011BC003B603B6800224FF4E4612D4800F045FF92
:1011CC00002240F23C412B4800F03FFF4FF400530B
:1011DC003B61294B7B610023BB6107F1100319466E
:1011EC00264800F097FD13233B6100237B6101230C
:1011FC00BB6107F1100319461D4800F08BFD4FF43D
:10120C00E4633B6101237B610023BB610223FB612F
:10121C0007F110031946164800F07CFD01233B61D1
:10122C0000237B610123BB6107F1100319461148B0
:10123C0000F070FD40F23C433B6101237B610023D5
:10124C00BB610223FB6107F110031946094800F04A
:10125C0061FD00220021282000F075FC282000F000
:10126C008EFC00BF2037BD4680BD00BF0010024081
:10127C0000080140000C014000001110001001405A
:10128C0080B582B000AF786000F09EF9FFF70CF9E2
:10129C0000BF0837BD4680BD80B400AF72B600BF3A
:1012AC00FEE7000080B485B000AF154B9B69144A73
:1012BC0043F001039361124B9B6903F00103BB6084
:1012CC00BB680F4BDB690E4A43F08053D3610C4B68
:1012DC00DB6903F080537B607B680A4B5B68FB60C7
:1012EC00FB6823F0E063FB60FB6843F00073FB607A
:1012FC00044AFB68536000BF1437BD4680BC70477E
:10130C00001002400000014080B584B000AF78604E
:10131C007B681B680D4A934213D10D4BDB690C4A59
:10132C0043F00203D3610A4BDB6903F00203FB6059
:10133C00FB68002200211D2000F005FC1D2000F0A0
:10134C001EFC00BF1037BD4680BD00BF000400402E
:10135C000010024080B588B000AF786007F1100330
:10136C0000221A605A609A60DA607B681B680F4A28
:10137C00934217D10E4B9B690D4A43F004039361C2
:10138C000B4B9B6903F00403FB60FB68C0233B61C0
:10139C0002237B610223FB6107F110031946054808
:1013AC0000F0B8FC00BF2037BD4680BD00040040F3
:1013BC00001002400008014080B588B000AF786092
:1013CC0007F1100300221A605A609A60DA607B6899
:1013DC001B68194A93422BD1184BDB69174A43F40B
:1013EC000033D361154BDB6903F40033FB60FB68FE
:1013FC00124B9B69114A43F0040393610F4B9B6999
:10140C0003F00403BB60BB680C233B6102237B61CC
:10141C000223FB6107F110031946094800F07AFC1E
:10142C0000220021262000F08EFB262000F0A7FBD6
:10143C0000BF2037BD4680BD004400400010024074
:10144C000008014080B400AFFEE780B400AFFEE7B7
:10145C0080B400AFFEE780B400AFFEE780B400AF0D
:10146C00FEE780B400AF00BFBD4680BC704780B4BF
:10147C0000AF00BFBD4680BC704780B400AF00BF5A
:10148C00BD4680BC704780B500AF00F069FA00BF64
:10149C0080BD000080B500AF024801F0C7FB00BF63
:1014AC0080BD00BF1C01002080B500AF024802F0D7
:1014BC005FFA00BF80BD00BF6401002080B500AFA3
:1014CC004FF4005000F0DAFD00BF80BD80B586B04F
:1014DC0000AF7860144A154BD31A7B617B693B6172
:1014EC00134B1B68002B02D1114B124A1A60104B84
:1014FC001A687B6813443A699A4207D202F030FEAC
:10150C0003460C221A604FF0FF3309E0084B1B68AE
:10151C00FB60074B1A687B681344054A1360FB6831
:10152C0018461837BD4680BD00500020000400004E
:10153C00C40000201002002080B400AF00BFBD46E4
:10154C0080BC704780B483B000AF7860044A7B687D
:10155C0052F8233018460C37BD4680BC704700BF8C
:10156C00A801002080B483B000AF7860064A7B6885
:10157C0052F82330012B0CBF01230023DBB2184699
:10158C000C37BD4680BC7047B801002080B483B0D6
:10159C0000AF78603960094B1B683A6892FBF3F234
:1015AC0007497B6841F82320064A7B68002142F8F2
:1015BC00231000BF0C37BD4680BC704710000020C4
:1015CC00A8010020B801002080B483B000AF002334
:1015DC007B601CE0124A7B6852F82330002B13DD31
:1015EC000F4A7B6852F823305A1E0D497B6841F82C
:1015FC0023200B4A7B6852F82330002B04D1094A74
:10160C007B68012142F823107B6801337B607B6887
:10161C00032BDFDD00BF00BF0C37BD4680BC70471D
:10162C00A8010020B801002080B500AF0020FFF712
:10163C0089FF0346264A82FB03125211DB17D21A8A
:10164C00244B1B689A4219D00020FFF77BFF0346FE
:10165C001F4A82FB03125211DB17D31A1D4A136067
:10166C001C4B1B681C4A1D491D4802F0ABFD034670
:10167C009AB264231A491B4802F0E7F80120FFF7DD
:10168C0061FF0346124A82FB03125211DB17D21A76
:10169C00154B1B689A4219D00120FFF753FF0346E4
:1016AC000B4A82FB03125211DB17D31A0E4A13603A
:1016BC000D4B1B680D4A0949094802F083FD03468E
:1016CC009AB264230649074802F0BFF800BF80BDF8
:1016DC001F85EB51CC0000205C4A0008604A0008D2
:1016EC00C801002064010020D0000020684A0008D6
:1016FC0080B500AF454B1B68053B032B7DD801A281
:10170C0052F823F021170008291700087317000856
:10171C00BD1700083E4B00221A6075E03D4B1B685C
:10172C003D4A82FB03129211DB17D21A384B1B680D
:10173C009A4264D0374B1B68374A82FB03129211D2
:10174C00DB17D31A324A1360314B1B68334A3449C6
:10175C00344802F037FD03469AB2642331493248CB
:10176C0002F073F84BE0314B1B682B4A82FB0312DF
:10177C009211DB17D21A264B1B689A4241D02B4B85
:10178C001B68254A82FB03129211DB17D31A204ADD
:10179C0013601F4B1B68264A2149224802F012FD98
:1017AC0003469AB264231F491F4802F04EF828E002
:1017BC00204B1B68184A82FB03129211DB17D21ABA
:1017CC00134B1B689A421ED01A4B1B68124A82FBA1
:1017DC0003129211DB17D31A0D4A13600C4B1B68C2
:1017EC00154A0F490F4802F0EDFC03469AB26423E8
:1017FC000C490D4802F029F805E000BF04E000BFD9
:10180C0002E000BF00E000BF00BF80BDC0000020B0
:10181C00C800002018000020D34D62106C4A00084C
:10182C00604A0008C8010020640100201C00002050
:10183C00744A000820000020804A000880B500AFE0
:10184C000C4B1A680C4B1B689A4211D00A4B1B6844
:10185C00084A1360074B1B681A460849084802F0EF
:10186C00B1FC03469AB264230549064801F0EDFF2A
:10187C0000BF80BDC8000020BC0000208C4A0008BE
:10188C00C8010020640100200C480D490D4A0023BA
:10189C0002E0D458C4500433C4188C42F9D30A4A19
:1018AC000A4C002301E013600432A242FBD3FFF781
:1018BC0043FE02F05BFCFFF733FB70470000002097
:1018CC0094000020F84A0008940000201002002028
:1018DC00FEE7000080B500AF084B1B68074A43F0D9
:1018EC0010031360032000F023F9002000F008F827
:1018FC00FFF7D8FC0023184680BD00BF0020024033
:10190C0080B582B000AF7860124B1A68124B1B780E
:10191C0019464FF47A73B3FBF1F3B2FBF3F31846A9
:10192C0000F03BF90346002B01D001230EE07B684D
:10193C000F2B0AD8002279684FF0FF3000F003F922
:10194C00064A7B681360002300E001231846083721
:10195C00BD4680BD240000202C0000202800002063
:10196C0080B400AF054B1B781A46054B1B6813441B
:10197C00034A136000BFBD4680BC70472C0000209A
:10198C00FC01002080B400AF024B1B681846BD461A
:10199C0080BC7047FC01002080B485B000AF78603B
:1019AC007B6803F00703FB600C4BDB68BB60BA6819
:1019BC004FF6FF031340BB60FB681A02BB6813436E
:1019CC0043F0BF6343F40033BB60044ABB68D3608D
:1019DC0000BF1437BD4680BC704700BF00ED00E06F
:1019EC0080B400AF044BDB681B0A03F007031846F6
:1019FC00BD4680BC704700BF00ED00E080B483B0F2
:101A0C0000AF0346FB7197F90730002B0BDBFB791A
:101A1C0003F01F02064997F907305B09012000FA11
:101A2C0002F241F8232000BF0C37BD4680BC704742
:101A3C0000E100E080B483B000AF03463960FB7175
:101A4C0097F90730002B0ADB3B68DAB20C4997F99F
:101A5C0007301201D2B20B4483F800230AE03B6832
:101A6C00DAB20849FB7903F00F03043B1201D2B23E
:101A7C000B441A7600BF0C37BD4680BC704700BFC4
:101A8C0000E100E000ED00E080B489B000AFF86048
:101A9C00B9607A60FB6803F00703FB61FB69C3F173
:101AAC000703042B28BF0423BB61FB690433062BFB
:101ABC0002D9FB69033B00E000237B614FF0FF324E
:101ACC00BB6902FA03F3DA43BB681A407B699A409C
:101ADC004FF0FF317B6901FA03F3D9437B680B406C
:101AEC00134318462437BD4680BC704780B582B07E
:101AFC0000AF78607B68013BB3F1807F01D3012399
:101B0C000FE00A4A7B68013B53600F214FF0FF3016
:101B1C00FFF790FF054B00229A60044B07221A60D6
:101B2C00002318460837BD4680BD00BF10E000E01A
:101B3C0080B582B000AF78607868FFF72DFF00BFEA
:101B4C000837BD4680BD80B586B000AF0346B9608E
:101B5C007A60FB7300237B61FFF742FF78617A6840
:101B6C00B9687869FFF790FF024697F90F30114674
:101B7C001846FFF75FFF00BF1837BD4680BD80B524
:101B8C0082B000AF0346FB7197F907301846FFF798
:101B9C0035FF00BF0837BD4680BD80B582B000AFB1
:101BAC0078607868FFF7A2FF034618460837BD46F1
:101BBC0080BD80B485B000AF78600023FB737B6878
:101BCC0093F82130022B08D07B6804229A637B683F
:101BDC00002283F82020012320E07B681B681A6810
:101BEC007B681B6822F00E021A607B681B681A68FF
:101BFC007B681B6822F001021A607B681A6C7B6898
:101C0C00DB6B012101FA02F25A607B68012283F836
:101C1C0021207B68002283F82020FB7B1846143798
:101C2C00BD4680BC7047000080B584B000AF7860C2
:101C3C000023FB737B6893F82130022B05D07B6863
:101C4C0004229A630123FB7351E07B681B681A68BA
:101C5C007B681B6822F00E021A607B681B681A688E
:101C6C007B681B6822F001021A607B681B68224AA1
:101C7C00934229D07B681B68204A934222D07B6810
:101C8C001B681F4A93421AD07B681B681D4A9342FB
:101C9C0012D07B681B681C4A93420AD07B681B6875
:101CAC001A4A934202D14FF480130EE04FF0807326
:101CBC000BE04FF4803308E04FF4805305E04FF411
:101CCC00807302E0102300E00123114A53607B680B
:101CDC00012283F821207B68002283F820207B6876
:101CEC005B6B002B03D07B685B6B78689847FB7B46
:101CFC0018461037BD4680BD080002401C0002404B
:101D0C003000024044000240580002406C00024087
:101D1C000000024080B48BB000AF786039600023C3
:101D2C007B6200233B6269E101227B6A02FA03F3C6
:101D3C00FB613B681B68FA691340BB61BA69FB69BC
:101D4C009A4240F058813B685B689A4A93425ED055
:101D5C00984A934275D8984A934258D0964A9342DF
:101D6C006FD8964A934252D0944A934269D8944A77
:101D7C0093424CD0924A934263D8924A934246D0B3
:101D8C00904A93425DD8122B2AD8122B59D801A213
:101D9C0052F823F01B1E0008F51D0008071E000852
:101DAC00491E00084F1E00084F1E00084F1E000859
:101DBC004F1E00084F1E00084F1E00084F1E000843
:101DCC004F1E00084F1E00084F1E00084F1E000833
:101DDC004F1E00084F1E0008FD1D0008111E0008B4
:101DEC00794A934213D02CE03B68DB683B6229E0D4
:101DFC003B68DB6804333B6224E03B68DB680833F8
:101E0C003B621FE03B68DB680C333B621AE03B68CB
:101E1C009B68002B02D104233B6213E03B689B6858
:101E2C00012B05D108233B627B68FA691A6109E032
:101E3C0008233B627B68FA695A6103E000233B622A
:101E4C0000E000BFBB69FF2B01D87B6801E07B6819
:101E5C0004337B61BB69FF2B02D87B6A9B0002E0D9
:101E6C007B6A083B9B003B617B691A680F213B69CD
:101E7C0001FA03F3DB431A40396A3B6901FA03F3B5
:101E8C001A437B691A603B685B6803F08053002B34
:101E9C0000F0B1804D4B9B694C4A43F001039361B8
:101EAC004A4B9B6903F00103BB60BB68484A7B6AE1
:101EBC009B08023352F82330FB607B6A03F0030368
:101ECC009B000F2202FA03F3DB43FA681340FB601A
:101EDC007B68404A934213D07B683F4A93420DD0B3
:101EEC007B683E4A934207D07B683D4A934201D1BE
:101EFC00032306E0042304E0022302E0012300E0B4
:101F0C0000237A6A02F0030292009340FA681343AA
:101F1C00FB602F497B6A9B080233FA6841F8232047
:101F2C003B685B6803F48033002B06D02D4B1A689A
:101F3C002C49BB6913430B6006E02A4B1A68BB693A
:101F4C00DB43284913400B603B685B6803F40033A8
:101F5C00002B06D0234B5A682249BB6913434B60B4
:101F6C0006E0204B5A68BB69DB431E4913404B60AB
:101F7C003B685B6803F48013002B06D0194B9A68FE
:101F8C001849BB6913438B6006E0164B9A68BB6912
:101F9C00DB43144913408B603B685B6803F400130C
:101FAC00002B21D00F4BDA680E49BB691343CB6071
:101FBC0021E000BF000032100000311000002210A0
:101FCC00000021100000121000001110001002403F
:101FDC000000014000080140000C014000100140CD
:101FEC0000140140000401400B4BDA68BB69DB4371
:101FFC0009491340CB607B6A01337B623B681A68EA
:10200C007B6A22FA03F3002B7FF48EAE00BF00BF75
:10201C002C37BD4680BC70470004014080B485B0AD
:10202C0000AF78600B467B807B689A687B88134096
:10203C00002B02D00123FB7301E00023FB73FB7B1D
:10204C0018461437BD4680BC704780B483B000AFCF
:10205C0078600B467B8013467B707B78002B03D01B
:10206C007A887B681A6103E07B881A047B681A61A2
:10207C0000BF0C37BD4680BC7047000080B582B0F5
:10208C0000AF0346FB80084B5A69FB881340002BBA
:10209C0006D0054AFB885361FB88184600F006F809
:1020AC0000BF0837BD4680BD0004014080B483B03A
:1020BC0000AF0346FB8000BF0C37BD4680BC7047A9
:1020CC0080B586B000AF78607B68002B01D101230E
:1020DC006CE27B681B6803F00103002B00F0878027
:1020EC00924B5B6803F00C03042B0CD08F4B5B689A
:1020FC0003F00C03082B12D18C4B5B6803F4803378
:10210C00B3F5803F0BD1894B1B6803F40033002BD4
:10211C006CD07B685B68002B68D1012346E27B683E
:10212C005B68B3F5803F06D1804B1B687F4A43F454
:10213C00803313602EE07B685B68002B0CD17B4BEB
:10214C001B687A4A23F480331360784B1B68774AF8
:10215C0023F4802313601DE07B685B68B3F5A02F2C
:10216C000CD1724B1B68714A43F4802313606F4B84
:10217C001B686E4A43F4803313600BE06B4B1B6897
:10218C006A4A23F480331360684B1B68674A23F454
:10219C00802313607B685B68002B13D0FFF7F2FB86
:1021AC00386108E0FFF7EEFB02463B69D31A642B5B
:1021BC0001D90323FAE15D4B1B6803F40033002BB8
:1021CC00F0D014E0FFF7DEFB386108E0FFF7DAFB34
:1021DC0002463B69D31A642B01D90323E6E1534B26
:1021EC001B6803F40033002BF0D100E000BF7B68C8
:1021FC001B6803F00203002B63D04C4B5B6803F0AD
:10220C000C03002B0BD0494B5B6803F00C03082B21
:10221C001CD1464B5B6803F48033002B16D1434B27
:10222C001B6803F00203002B05D07B681B69012B94
:10223C0001D00123BAE13D4B1B6823F0F8027B6807
:10224C005B69DB00394913430B603AE07B681B691F
:10225C00002B20D0364B01221A60FFF793FB38611C
:10226C0008E0FFF78FFB02463B69D31A022B01D91A
:10227C0003239BE12D4B1B6803F00203002BF0D0D2
:10228C002A4B1B6823F0F8027B685B69DB0027494B
:10229C0013430B6015E0264B00221A60FFF772FB0C
:1022AC00386108E0FFF76EFB02463B69D31A022B3C
:1022BC0001D903237AE11D4B1B6803F00203002BA9
:1022CC00F0D17B681B6803F00803002B3AD07B68C5
:1022DC009B69002B19D0174B01221A60FFF752FB98
:1022EC00386108E0FFF74EFB02463B69D31A022B1C
:1022FC0001D903235AE10D4B5B6A03F00203002B57
:10230C00F0D0012000F0D8FA1CE00A4B00221A6031
:10231C00FFF738FB38610FE0FFF734FB02463B69EF
:10232C00D31A022B08D9032340E100BF001002404E
:10233C0000004242800442429E4B5B6A03F002035F
:10234C00002BE9D17B681B6803F00403002B00F021
:10235C00A6800023FB75974BDB6903F08053002BA1
:10236C000DD1944BDB69934A43F08053D361914B6D
:10237C00DB6903F08053BB60BB680123FB758E4B9C
:10238C001B6803F48073002B18D18B4B1B688A4A93
:10239C0043F480731360FFF7F5FA386108E0FFF738
:1023AC00F1FA02463B69D31A642B01D90323FDE0F1
:1023BC00814B1B6803F48073002BF0D07B68DB68C7
:1023CC00012B06D17B4B1B6A7A4A43F00103136243
:1023DC002DE07B68DB68002B0CD1764B1B6A754AB1
:1023EC0023F001031362734B1B6A724A23F004033C
:1023FC0013621CE07B68DB68052B0CD16D4B1B6AF0
:10240C006C4A43F0040313626A4B1B6A694A43F03B
:10241C00010313620BE0674B1B6A664A23F001034E
:10242C001362644B1B6A634A23F0040313627B68D8
:10243C00DB68002B15D0FFF7A5FA38610AE0FFF72F
:10244C00A1FA02463B69D31A41F28832934201D970
:10245C000323ABE0574B1B6A03F00203002BEED0B7
:10246C0014E0FFF78FFA38610AE0FFF78BFA0246A7
:10247C003B69D31A41F28832934201D9032395E088
:10248C004C4B1B6A03F00203002BEED1FB7D012B9E
:10249C0005D1484BDB69474A23F08053D3617B68F5
:1024AC00DB69002B00F08180424B5B6803F00C036E
:1024BC00082B61D07B68DB69022B46D13F4B002295
:1024CC001A60FFF75FFA386108E0FFF75BFA024623
:1024DC003B69D31A022B01D9032367E0354B1B68E8
:1024EC0003F00073002BF0D17B681B6AB3F5803FBF
:1024FC0008D1304B5B6823F400327B689B682D4914
:10250C0013434B602B4B5B6823F474127B68196A82
:10251C007B685B6A0B43274913434B60274B0122B3
:10252C001A60FFF72FFA386108E0FFF72BFA024622
:10253C003B69D31A022B01D9032337E01D4B1B68CF
:10254C0003F00073002BF0D02FE01C4B00221A601C
:10255C00FFF718FA386108E0FFF714FA02463B69F6
:10256C00D31A022B01D9032320E0124B1B6803F072
:10257C000073002BF0D118E07B68DB69012B01D1D3
:10258C00012313E00B4B5B68FB60FB6803F48032A8
:10259C007B681B6A9A4206D1FB6803F470127B6855
:1025AC005B6A9A4201D0012300E0002318461837D9
:1025BC00BD4680BD001002400070004060004242E9
:1025CC0080B584B000AF786039607B68002B01D196
:1025DC000123D0E06A4B1B6803F007033A689A4268
:1025EC0010D9674B1B6823F0070265493B681343FE
:1025FC000B60634B1B6803F007033A689A4201D0E7
:10260C000123B8E07B681B6803F00203002B20D089
:10261C007B681B6803F00403002B05D0594B5B68E7
:10262C00584A43F4E06353607B681B6803F008036B
:10263C00002B05D0534B5B68524A43F460535360F4
:10264C00504B5B6823F0F0027B689B684D49134349
:10265C004B607B681B6803F00103002B40D07B6848
:10266C005B68012B07D1474B1B6803F40033002B2D
:10267C0015D101237FE07B685B68022B07D1414BAE
:10268C001B6803F00073002B09D1012373E03D4B51
:10269C001B6803F00203002B01D101236BE0394BC3
:1026AC005B6823F003027B685B68364913434B601D
:1026BC00FFF768F9F8600AE0FFF764F90246FB6877
:1026CC00D31A41F28832934201D9032353E02D4BA4
:1026DC005B6803F00C027B685B689B009A42EBD151
:1026EC00274B1B6803F007033A689A4210D2244B1D
:1026FC001B6823F0070222493B6813430B60204BF5
:10270C001B6803F007033A689A4201D0012332E0B8
:10271C007B681B6803F00403002B08D0194B5B6823
:10272C0023F4E0627B68DB68164913434B607B68DB
:10273C001B6803F00803002B09D0124B5B6823F4D1
:10274C0060527B681B69DB000E4913434B6000F041
:10275C0021F802460B4B5B681B0903F00F030A4977
:10276C00CB5C22FA03F3094A1360094B1B68184629
:10277C00FFF7C6F8002318461037BD4680BD00BFD2
:10278C000020024000100240A44A0008240000204F
:10279C002800002090B48AB000AF2A4B3C1D0FCB10
:1027AC0084E80F0040F201233B800023FB610023EF
:1027BC00BB6100237B6200237B6100233B62224BC5
:1027CC005B68FB61FB6903F00C03042B02D0082B44
:1027DC0003D02DE01D4B3B622DE0FB699B0C03F0FD
:1027EC000F0307F12802134413F8243C7B61FB69A7
:1027FC0003F48033002B13D0134B5B685B0C03F09A
:10280C00010307F12802134413F8283CBB617B69D0
:10281C000E4A02FB03F2BB69B2FBF3F37B6204E0EA
:10282C007B690B4A02FB03F37B627B6A3B6202E02F
:10283C00064B3B6200BF3B6A18462837BD4690BC2E
:10284C00704700BF944A00080010024000127A0042
:10285C0000093D0080B400AF024B1B681846BD4612
:10286C0080BC70472400002080B500AFFFF7F2FF5A
:10287C000246054B5B681B0A03F007030349CB5C5C
:10288C0022FA03F3184680BD00100240B44A000837
:10289C0080B500AFFFF7DEFF0246054B5B68DB0A35
:1028AC0003F007030349CB5C22FA03F3184680BDFF
:1028BC0000100240B44A000880B485B000AF7860C4
:1028CC000A4B1B680A4AA2FB03235B0A7A6802FBC9
:1028DC0003F3FB6000BFFB685A1EFA60002BF9D1B2
:1028EC0000BF00BF1437BD4680BC704724000020D9
:1028FC00D34D621080B582B000AF78607B68002B3E
:10290C0001D1012341E07B6893F83D30DBB2002B11
:10291C0006D17B68002283F83C207868FEF7F4FC33
:10292C007B68022283F83D207B681A687B6804333D
:10293C001946104600F028FC7B68012283F84620DB
:10294C007B68012283F83E207B68012283F83F20BC
:10295C007B68012283F840207B68012283F84120A8
:10296C007B68012283F842207B68012283F8432094
:10297C007B68012283F844207B68012283F8452080
:10298C007B68012283F83D20002318460837BD469A
:10299C0080BD000080B485B000AF78607B6893F890
:1029AC003D30DBB2012B01D001233AE07B680222DF
:1029BC0083F83D207B681B68DA687B681B6842F0F3
:1029CC000102DA607B681B68184A93420ED07B6860
:1029DC001B68B3F1804F09D07B681B68144A934283
:1029EC0004D07B681B68134A934211D17B681B6827
:1029FC009B6803F00703FB60FB68062B10D07B6819
:102A0C001B681A687B681B6842F001021A6007E0B9
:102A1C007B681B681A687B681B6842F001021A60AD
:102A2C00002318461437BD4680BC7047002C01406B
:102A3C00000400400008004080B582B000AF786010
:102A4C007B68002B01D1012341E07B6893F83D307A
:102A5C00DBB2002B06D17B68002283F83C2078681F
:102A6C0000F039F87B68022283F83D207B681A68F5
:102A7C007B6804331946104600F086FB7B68012204
:102A8C0083F846207B68012283F83E207B68012274
:102A9C0083F83F207B68012283F840207B68012269
:102AAC0083F841207B68012283F842207B68012255
:102ABC0083F843207B68012283F844207B68012241
:102ACC0083F845207B68012283F83D2000231846BB
:102ADC000837BD4680BD80B483B000AF786000BFBE
:102AEC000C37BD4680BC704780B584B000AF7860B1
:102AFC0039603B68002B09D17B6893F83E30DBB220
:102B0C00012B14BF01230023DBB222E03B68042B12
:102B1C0009D17B6893F83F30DBB2012B14BF012342
:102B2C000023DBB215E03B68082B09D17B6893F8D6
:102B3C004030DBB2012B14BF01230023DBB208E0D1
:102B4C007B6893F84130DBB2012B14BF01230023C7
:102B5C00DBB2002B01D001235EE03B68002B04D1DB
:102B6C007B68022283F83E2013E03B68042B04D1DF
:102B7C007B68022283F83F200BE03B68082B04D1D2
:102B8C007B68022283F8402003E07B68022283F8F2
:102B9C0041207B681B6801223968184600F074FDDF
:102BAC007B681B681E4A934207D17B681B685A6C72
:102BBC007B681B6842F400425A647B681B68184AA5
:102BCC0093420ED07B681B68B3F1804F09D07B68B1
:102BDC001B68144A934204D07B681B68124A9342C8
:102BEC0011D17B681B689B6803F00703FB60FB68D3
:102BFC00062B10D07B681B681A687B681B6842F038
:102C0C0001021A6007E07B681B681A687B681B6806
:102C1C0042F001021A60002318461037BD4680BDF1
:102C2C00002C0140000400400008004080B582B038
:102C3C0000AF78607B681B681B6903F00203022BF2
:102C4C0022D17B681B68DB6803F00203022B1BD1CB
:102C5C007B681B686FF002021A617B6801221A778D
:102C6C007B681B689B6903F00303002B03D0786817
:102C7C0000F06FFA05E0786800F062FA786800F00E
:102C8C0071FA7B6800221A777B681B681B6903F05A
:102C9C000403042B22D17B681B68DB6803F004035C
:102CAC00042B1BD17B681B686FF004021A617B68D4
:102CBC0002221A777B681B689B6903F44073002B14
:102CCC0003D0786800F045FA05E0786800F038FA2F
:102CDC00786800F047FA7B6800221A777B681B68DB
:102CEC001B6903F00803082B22D17B681B68DB6887
:102CFC0003F00803082B1BD17B681B686FF00802DC
:102D0C001A617B6804221A777B681B68DB6903F005
:102D1C000303002B03D0786800F01BFA05E07868F9
:102D2C0000F00EFA786800F01DFA7B6800221A7722
:102D3C007B681B681B6903F01003102B22D17B6886
:102D4C001B68DB6803F01003102B1BD17B681B681E
:102D5C006FF010021A617B6808221A777B681B6877
:102D6C00DB6903F44073002B03D0786800F0F1F9B1
:102D7C0005E0786800F0E4F9786800F0F3F97B6816
:102D8C0000221A777B681B681B6903F00103012B77
:102D9C000ED17B681B68DB6803F00103012B07D1A4
:102DAC007B681B686FF001021A617868FEF768FA9D
:102DBC007B681B681B6903F08003802B0ED17B683A
:102DCC001B68DB6803F08003802B07D17B681B68D2
:102DDC006FF080021A61786800F0E1FC7B681B6878
:102DEC001B6903F04003402B0ED17B681B68DB682A
:102DFC0003F04003402B07D17B681B686FF0400247
:102E0C001A61786800F0B7F97B681B681B6903F0DE
:102E1C002003202B0ED17B681B68DB6803F020039A
:102E2C00202B07D17B681B686FF020021A61786831
:102E3C0000F0ACFC00BF0837BD4680BD80B584B047
:102E4C0000AFF860B9607A60FB6893F83C30012BF6
:102E5C0001D10223ACE0FB68012283F83C207B68A3
:102E6C000C2B00F29F8001A252F823F0AD2E00082B
:102E7C00B12F0008B12F0008B12F0008ED2E00086B
:102E8C00B12F0008B12F0008B12F00082F2F000818
:102E9C00B12F0008B12F0008B12F00086F2F0008C8
:102EAC00FB681B68B968184600F0D0F9FB681B6812
:102EBC009A69FB681B6842F008029A61FB681B6800
:102ECC009A69FB681B6822F004029A61FB681B6814
:102EDC009969BB681A69FB681B680A439A6162E0CE
:102EEC00FB681B68B968184600F016FAFB681B688B
:102EFC009A69FB681B6842F400629A61FB681B6864
:102F0C009A69FB681B6822F480629A61FB681B68F3
:102F1C009969BB681B691A02FB681B680A439A61B2
:102F2C0041E0FB681B68B968184600F05FFAFB6863
:102F3C001B68DA69FB681B6842F00802DA61FB68FF
:102F4C001B68DA69FB681B6822F00402DA61FB6813
:102F5C001B68D969BB681A69FB681B680A43DA618C
:102F6C0021E0FB681B68B968184600F0A9FAFB68F9
:102F7C001B68DA69FB681B6842F40062DA61FB6863
:102F8C001B68DA69FB681B6822F48062DA61FB68F3
:102F9C001B68D969BB681B691A02FB681B680A436A
:102FAC00DA6100E000BFFB68002283F83C200023BC
:102FBC0018461037BD4680BD80B584B000AF786030
:102FCC0039607B6893F83C30012B01D10223B3E0CC
:102FDC007B68012283F83C207B68022283F83D2029
:102FEC007B681B689B68FB60FB6823F07703FB60C6
:102FFC00FB6823F47F43FB607B681B68FA689A606C
:10300C003B681B68B3F5005F3ED0B3F5005F00F280
:10301C008780B3F5805F00F08580B3F5805F7FD843
:10302C00702B1AD0702B7BD8602B50D0602B77D89C
:10303C00502B3CD0502B73D8402B58D0402B6FD8F2
:10304C00302B64D0302B6BD8202B60D0202B67D842
:10305C00002B5CD0102B5AD062E07B6818683B6860
:10306C0099683B685A683B68DB6800F0EEFA7B684D
:10307C001B689B68FB60FB6843F07703FB607B6815
:10308C001B68FA689A604EE07B6818683B68996820
:10309C003B685A683B68DB6800F0D7FA7B681B68B2
:1030AC009A687B681B6842F480429A603BE07B68BC
:1030BC0018683B6859683B68DB681A4600F04EFAA2
:1030CC007B681B685021184600F0A5FA2BE07B6842
:1030DC0018683B6859683B68DB681A4600F06CFA64
:1030EC007B681B686021184600F095FA1BE07B6832
:1030FC0018683B6859683B68DB681A4600F02EFA82
:10310C007B681B684021184600F085FA0BE07B6851
:10311C001A683B681B681946104600F07CFA02E0FE
:10312C0000BF00E000BF7B68012283F83D207B6874
:10313C00002283F83C20002318461037BD4680BD82
:10314C0080B483B000AF786000BF0C37BD4680BC44
:10315C00704780B483B000AF786000BF0C37BD46B9
:10316C0080BC704780B483B000AF786000BF0C3770
:10317C00BD4680BC704780B483B000AF786000BFA0
:10318C000C37BD4680BC704780B485B000AF78600A
:10319C0039607B681B68FB607B68294A93420BD0C3
:1031AC007B68B3F1804F07D07B68264A934203D0EB
:1031BC007B68254A934208D1FB6823F07003FB60BF
:1031CC003B685B68FA681343FB607B681C4A93425C
:1031DC000BD07B68B3F1804F07D07B68194A9342C0
:1031EC0003D07B68184A934208D1FB6823F44073E0
:1031FC00FB603B68DB68FA681343FB60FB6823F0F9
:10320C0080023B685B691343FB607B68FA681A6059
:10321C003B689A687B68DA623B681A687B689A62DA
:10322C007B68074A934203D13B681A697B681A632F
:10323C007B6801225A6100BF1437BD4680BC7047C1
:10324C00002C0140000400400008004080B487B00E
:10325C0000AF786039607B681B6A23F001027B68E1
:10326C001A627B681B6A7B617B685B683B617B686D
:10327C009B69FB60FB6823F07003FB60FB6823F029
:10328C000303FB603B681B68FA681343FB607B69B4
:10329C0023F002037B613B689B687A6913437B6173
:1032AC007B681C4A93420CD17B6923F008037B6139
:1032BC003B68DB687A6913437B617B6923F0040309
:1032CC007B617B68134A934211D13B6923F4807371
:1032DC003B613B6923F400733B613B685B693A6972
:1032EC0013433B613B689B693A6913433B617B68C1
:1032FC003A695A607B68FA689A613B685A687B68DD
:10330C005A637B687A691A6200BF1C37BD4680BC61
:10331C00704700BF002C014080B487B000AF7860CC
:10332C0039607B681B6A23F010027B681A627B6829
:10333C001B6A7B617B685B683B617B689B69FB609C
:10334C00FB6823F4E043FB60FB6823F44073FB60F1
:10335C003B681B681B02FA681343FB607B6923F014
:10336C0020037B613B689B681B017A6913437B617B
:10337C007B681D4A93420DD17B6923F080037B61EE
:10338C003B68DB681B017A6913437B617B6923F023
:10339C0040037B617B68144A934213D13B6923F44D
:1033AC0080633B613B6923F400633B613B685B6971
:1033BC009B003A6913433B613B689B699B003A69EC
:1033CC0013433B617B683A695A607B68FA689A617F
:1033DC003B685A687B689A637B687A691A6200BF9B
:1033EC001C37BD4680BC7047002C014080B487B0B0
:1033FC0000AF786039607B681B6A23F480727B684D
:10340C001A627B681B6A7B617B685B683B617B68CB
:10341C00DB69FB60FB6823F07003FB60FB6823F047
:10342C000303FB603B681B68FA681343FB607B6912
:10343C0023F400737B613B689B681B027A6913431E
:10344C007B617B681D4A93420DD17B6923F4006339
:10345C007B613B68DB681B027A6913437B617B6988
:10346C0023F480637B617B68144A934213D13B69DC
:10347C0023F480533B613B6923F400533B613B686D
:10348C005B691B013A6913433B613B689B691B01F8
:10349C003A6913433B617B683A695A607B68FA6806
:1034AC00DA613B685A687B68DA637B687A691A620E
:1034BC0000BF1C37BD4680BC704700BF002C0140CC
:1034CC0080B487B000AF786039607B681B6A23F4E6
:1034DC0080527B681A627B681B6A3B617B685B6805
:1034EC007B617B68DB69FB60FB6823F4E043FB607A
:1034FC00FB6823F44073FB603B681B681B02FA6893
:10350C001343FB603B6923F400533B613B689B68AE
:10351C001B033A6913433B617B680F4A934209D101
:10352C007B6923F480437B613B685B699B017A690F
:10353C0013437B617B687A695A607B68FA68DA614D
:10354C003B685A687B681A647B683A691A6200BFE8
:10355C001C37BD4680BC7047002C014080B487B03E
:10356C0000AFF860B9607A60FB681B6A7B61FB682E
:10357C001B6A23F00102FB681A62FB689B693B61C2
:10358C003B6923F0F0033B617B681B013A691343F1
:10359C003B617B6923F00A037B617A69BB68134347
:1035AC007B61FB683A699A61FB687A691A6200BFB1
:1035BC001C37BD4680BC704780B487B000AFF86044
:1035CC00B9607A60FB681B6A23F01002FB681A6210
:1035DC00FB689B697B61FB681B6A3B617B6923F41D
:1035EC0070437B617B681B037A6913437B613B6986
:1035FC0023F0A0033B61BB681B013A6913433B6199
:10360C00FB687A699A61FB683A691A6200BF1C37D9
:10361C00BD4680BC704780B485B000AF786039601F
:10362C007B689B68FB60FB6823F07003FB603A6867
:10363C00FB68134343F00703FB607B68FA689A60EE
:10364C0000BF1437BD4680BC704780B487B000AF54
:10365C00F860B9607A603B60FB689B687B617B6952
:10366C0023F47F437B613B681A027B681A43BB6877
:10367C0013437A6913437B61FB687A699A6000BFD4
:10368C001C37BD4680BC704780B487B000AFF86073
:10369C00B9607A60BB6803F01F03012202FA03F3DE
:1036AC007B61FB681A6A7B69DB431A40FB681A6210
:1036BC00FB681A6ABB6803F01F03796801FA03F30D
:1036CC001A43FB681A6200BF1C37BD4680BC7047AA
:1036DC0080B485B000AF786039607B6893F83C307B
:1036EC00012B01D1022346E07B68012283F83C20A8
:1036FC007B68022283F83D207B681B685B68FB605B
:10370C007B681B689B68BB60FB6823F07003FB60E5
:10371C003B681B68FA681343FB607B681B68FA689C
:10372C005A607B681B68164A93420ED07B681B68F4
:10373C00B3F1804F09D07B681B68124A934204D0C6
:10374C007B681B68104A93420CD1BB6823F0800342
:10375C00BB603B685B68BA681343BB607B681B68E3
:10376C00BA689A607B68012283F83D207B6800224E
:10377C0083F83C20002318461437BD4680BC7047A4
:10378C00002C0140000400400008004080B483B0CD
:10379C0000AF786000BF0C37BD4680BC704780B46A
:1037AC0083B000AF786000BF0C37BD4680BC70475B
:1037BC0080B582B000AF78607B68002B01D101230B
:1037CC003FE07B6893F83D30DBB2002B06D17B6881
:1037DC00002283F83C207868FDF7EEFD7B682422FC
:1037EC0083F83D207B681B68DA687B681B6822F4D1
:1037FC000052DA60786800F025FC7B681B681A6957
:10380C007B681B6822F490421A617B681B685A69BA
:10381C007B681B6822F02A025A617B681B68DA6895
:10382C007B681B6842F40052DA607B6800221A64E1
:10383C007B68202283F83D207B68202283F83E2081
:10384C00002318460837BD4680BD80B58AB002AF4C
:10385C00F860B9603B601346FB8000237B61FB681A
:10386C0093F83D30DBB2202B7CD1BB68002B02D00F
:10387C00FB88002B01D1012375E0FB6893F83C30E9
:10388C00012B01D102236EE0FB68012283F83C205E
:10389C00FB6800221A64FB68212283F83D20FEF7A6
:1038AC0071F87861FB68FA889A84FB68FA88DA8484
:1038BC00FB689B68B3F5805F08D1FB681B69002B24
:1038CC0004D10023FB61BB68BB6103E0BB68FB61F7
:1038DC000023BB61FB68002283F83C202AE03B6894
:1038EC0000937B6900228021F86800F011FA0346EE
:1038FC00002B01D0032336E0FB69002B0BD1BB69F5
:10390C001B881A46FB681B68C2F308025A60BB6925
:10391C000233BB6107E0FB691A78FB681B685A60CD
:10392C00FB690133FB61FB68DB8C9BB2013B9AB2F8
:10393C00FB68DA84FB68DB8C9BB2002BCFD13B6835
:10394C0000937B6900224021F86800F0E1F90346FE
:10395C00002B01D0032306E0FB68202283F83D20D6
:10396C00002300E0022318462037BD4680BD00002E
:10397C0080B58AB000AF78607B681B681B687B627F
:10398C007B681B68DB683B627B681B685B69FB615F
:10399C000023BB6100237B617B6A03F00F03BB61D7
:1039AC00BB69002B0DD17B6A03F02003002B08D0E0
:1039BC003B6A03F02003002B03D0786800F099FADF
:1039CC007BE1BB69002B00F0B180FB6903F00103C4
:1039DC00002B05D13B6A03F49073002B00F0A680FA
:1039EC007B6A03F00103002B0AD03B6A03F480735B
:1039FC00002B05D07B681B6C43F001027B681A64BA
:103A0C007B6A03F00403002B0AD0FB6903F001036B
:103A1C00002B05D07B681B6C43F002027B681A6498
:103A2C007B6A03F00203002B0AD0FB6903F001034D
:103A3C00002B05D07B681B6C43F004027B681A6476
:103A4C007B6A03F00803002B0FD03B6A03F02003C2
:103A5C00002B04D1FB6903F00103002B05D07B681C
:103A6C001B6C43F008027B681A647B681B6C002B90
:103A7C0000F01E817B6A03F02003002B07D03B6A09
:103A8C0003F02003002B02D0786800F032FA7B6838
:103A9C001B685B6903F04003002B14BF0123002358
:103AAC00DBB27B617B681B6C03F00803002B02D13B
:103ABC007B69002B31D0786800F074F97B681B6847
:103ACC005B6903F04003002B23D07B681B685A69A9
:103ADC007B681B6822F040025A617B689B6B002B51
:103AEC0013D07B689B6B764A5A637B689B6B18463A
:103AFC00FEF79AF80346002B16D07B689B6B5B6B2A
:103B0C007A68926B104698470EE0786800F0ECF8F3
:103B1C000AE0786800F0E8F806E0786800F0E4F86D
:103B2C007B6800221A64C3E000BFC1E07B681B6B9A
:103B3C00012B40F0A1807B6A03F01003002B00F0F6
:103B4C009B803B6A03F01003002B00F09580002350
:103B5C00FB607B681B681B68FB607B681B685B6891
:103B6C00FB60FB687B681B685B6903F04003002B00
:103B7C004ED07B689B6B1B685B683B823B8A002B3F
:103B8C0000F098807B689B8D3A8A9A4280F09280F4
:103B9C007B683A8ADA857B689B6B9B69202B2BD0E0
:103BAC007B681B68DA687B681B6822F48072DA60B9
:103BBC007B681B685A697B681B6822F001025A619A
:103BCC007B681B685A697B681B6822F040025A614B
:103BDC007B68202283F83E207B6800221A637B6876
:103BEC001B68DA687B681B6822F01002DA607B685D
:103BFC009B6B1846FDF7DDFF7B689A8D7B68DB8D30
:103C0C009BB2D31A9BB21946786800F076F851E053
:103C1C007B689A8D7B68DB8D9BB2D31A7B827B6829
:103C2C00DB8D9BB2002B47D07B8A002B44D07B686A
:103C3C001B68DA687B681B6822F49072DA607B6818
:103C4C001B685A697B681B6822F001025A617B6809
:103C5C00202283F83E207B6800221A637B681B6855
:103C6C00DA687B681B6822F01002DA607B8A1946DE
:103C7C00786800F042F81FE07B6A03F08003002BA9
:103C8C0008D03B6A03F08003002B03D0786800F067
:103C9C00C9F812E07B6A03F04003002B0DD03B6A9D
:103CAC0003F04003002B08D0786800F00AF904E018
:103CBC0000BF02E000BF00E000BF2837BD4680BD5A
:103CCC00093E000880B483B000AF786000BF0C37A9
:103CDC00BD4680BC704780B483B000AF786000BF35
:103CEC000C37BD4680BC704780B483B000AF7860A1
:103CFC0000BF0C37BD4680BC704780B483B000AFAA
:103D0C0078600B467B8000BF0C37BD4680BC70478B
:103D1C0080B584B000AFF860B9603B601346FB71AE
:103D2C002CE0BB69B3F1FF3F28D0BB69002B07D057
:103D3C00FDF728FE02463B68D31ABA699A421DD297
:103D4C00FB681B68DA68FB681B6822F4D072DA60C7
:103D5C00FB681B685A69FB681B6822F001025A61F8
:103D6C00FB68202283F83D20FB68202283F83E204C
:103D7C00FB68002283F83C2003230FE0FB681B68E0
:103D8C001A68BB681340BA689A420CBF012300231F
:103D9C00DBB21A46FB799A42C3D00023184610377F
:103DAC00BD4680BD80B483B000AF78607B681B6873
:103DBC00DA687B681B6822F49072DA607B681B6897
:103DCC005A697B681B6822F001025A617B681B6B85
:103DDC00012B07D17B681B68DA687B681B6822F0B3
:103DEC001002DA607B68202283F83E207B68002278
:103DFC001A6300BF0C37BD4680BC704780B584B0D9
:103E0C0000AF78607B685B6AFB60FB680022DA8538
:103E1C00FB680022DA84F868FFF766FF00BF1037F2
:103E2C00BD4680BD80B485B000AF78607B6893F8E8
:103E3C003D30DBB2212B3ED17B689B68B3F5805FB4
:103E4C0014D17B681B69002B10D17B681B6AFB604B
:103E5C00FB681B881A467B681B68C2F308025A6011
:103E6C007B681B6A9A1C7B681A6208E07B681B6A79
:103E7C00591C7A6811621A787B681B685A607B68D7
:103E8C00DB8C9BB2013B9BB27A681946D184002B28
:103E9C000FD17B681B68DA687B681B6822F0800294
:103EAC00DA607B681B68DA687B681B6842F040024A
:103EBC00DA60002300E0022318461437BD4680BCAC
:103ECC00704780B582B000AF78607B681B68DA6899
:103EDC007B681B6822F04002DA607B68202283F842
:103EEC003D207868FFF7EEFE002318460837BD46E4
:103EFC0080BD80B586B000AF78607B6893F83E30AB
:103F0C00DBB2222B40F099807B689B68B3F5805F15
:103F1C0017D17B681B69002B13D100237B617B6855
:103F2C009B6A3B617B681B685B689BB2C3F30803AD
:103F3C009AB23B691A807B689B6A9A1C7B689A626E
:103F4C0026E07B689B6A7B6100233B617B689B68F6
:103F5C00B3F5805F07D07B689B68002B0AD17B6828
:103F6C001B69002B06D17B681B685B68DAB27B6926
:103F7C001A7008E07B681B685B68DBB203F07F0398
:103F8C00DAB27B691A707B689B6A5A1C7B689A62EE
:103F9C007B68DB8D9BB2013B9BB27A681946D1855D
:103FAC00002B48D17B681B68DA687B681B6822F0A1
:103FBC002002DA607B681B68DA687B681B6822F475
:103FCC008072DA607B681B685A697B681B6822F018
:103FDC0001025A617B68202283F83E207B681B6BB0
:103FEC00012B23D17B6800221A637B681B68DA687B
:103FFC007B681B6822F01002DA607B681B681B6808
:10400C0003F01003102B0AD10023FB607B681B68A4
:10401C001B68FB607B681B685B68FB60FB687B68EC
:10402C009B8D19467868FFF768FE02E07868FFF709
:10403C0052FE002302E0002300E00223184618374A
:10404C00BD4680BD80B584B000AF78607B681B68CE
:10405C001B6923F440517B68DA687B681B680A4350
:10406C001A617B689A687B681B691A437B685B6979
:10407C001343BB607B681B68DB6823F4B05323F0ED
:10408C000C037A681268B9680B43D3607B681B68B1
:10409C005B6923F440717B689A697B681B680A43EF
:1040AC005A617B681B682C4A934203D1FEF7F0FBE4
:1040BC00F86002E0FEF7D8FBF860FA6813469B0044
:1040CC0013449A001A447B685B689B00B2FBF3F3C1
:1040DC00224AA2FB03235B091901FA6813469B00D1
:1040EC0013449A001A447B685B689B00B2FBF3F2A2
:1040FC001A4BA3FB02035B09642000FB03F3D31AE6
:10410C001B013233154AA2FB03235B0903F0F003B6
:10411C001944FA6813469B0013449A001A447B68AE
:10412C005B689B00B2FBF3F20C4BA3FB02035B0935
:10413C00642000FB03F3D31A1B013233074AA2FBA2
:10414C0003235B0903F00F027B681B680A449A6027
:10415C0000BF1037BD4680BD003801401F85EB51B4
:10416C00014B1868704700BF3000002070B5002666
:10417C000C4D0D4C641BA410A64209D100F05CFC44
:10418C0000260A4D0A4C641BA410A64205D170BD32
:10419C0055F8043B98470136EEE755F8043B984731
:1041AC000136F2E7F04A0008F04A0008F04A00082D
:1041BC00F44A000803460244934200D1704703F8C6
:1041CC00011BF9E70EB46FF0004100B59CB01DABBC
:1041DC0002900690079104910848094953F8042B62
:1041EC000591006802A9019300F068F80022029B77
:1041FC001A701CB05DF804EB03B07047300000205F
:10420C000802FFFF2DE9F0478E6882469E420C465D
:10421C0090461F4638D88A8912F4906F32D02568A0
:10422C0009690133A5EB010965694B4405EB4505AB
:10423C0005EBD5756D109D4238BF1D46530531D524
:10424C00294600F053FB064650B90C234FF0FF30C3
:10425C00CAF80030A38943F04003A381BDE8F0877E
:10426C004A46216900F0CEFAA38923F4906343F007
:10427C008003A38126614E4426603E466561A5EB12
:10428C000905A560BE4200D93E463246414620682B
:10429C0000F0C6FAA36822689B1B32440020A3607E
:1042AC002260DBE72A4600F07BFB06460028E1D1C2
:1042BC005046216900F0CEFAC7E700002DE9F04F17
:1042CC0098468B8907461B060D4614469DB00ED5A5
:1042DC000B6963B9402100F009FB2860286120B903
:1042EC000C233B604FF0FF30D1E040236B61002387
:1042FC00099320238DF8293030234FF00109CDF894
:10430C000C80DFF8A4818DF82A3023469A4613F8E6
:10431C00012B0AB1252AF9D1BAEB040B0BD05B4661
:10432C00224629463846FFF76DFF013000F0AA807F
:10433C00099A5A4409929AF80030002B00F0A28096
:10434C0000234FF0FF32CDE905230AF1010A049353
:10435C0007938DF853301A935446052214F8011B19
:10436C00514800F041FA049AD8B9D00644BF202332
:10437C008DF85330110744BF2B238DF853309AF826
:10438C0000302A2B15D0544600204FF00A0C079A07
:10439C00214611F8013B303B092B4ED9B0B10792A5
:1043AC0014E0A0EB080309FA03F31343A2460493A9
:1043BC00D2E7039B191D1B680391002BBBBF5B420B
:1043CC0042F0020207930793B8BF049223782E2B76
:1043DC000CD163782A2B35D1039B02341A1D1B6830
:1043EC000392002BB8BF4FF0FF330593DFF8C8A042
:1043FC0003225046217800F0F7F940B14023A0EB9E
:10440C000A0003FA00F0049B01340343049314F8EC
:10441C00011B062225488DF8281000F0E5F900282C
:10442C0038D0234B1BBB039B073323F00703083304
:10443C000393099B3344099367E70C4601200CFB5B
:10444C000232A5E700234FF00A0C194601340593FC
:10445C00204610F8012B303A092A03D9002BC5D07D
:10446C000591C3E7044601230CFB0121F0E703ABE4
:10447C0000932A4638460F4B04A9AFF30080421C28
:10448C000646D6D1AB895B063FF52CAF09981DB01B
:10449C00BDE8F08F03AB00932A463846054B04A9C0
:1044AC0000F07CF8EBE700BFBC4A0008C64A0008E5
:1044BC000000000011420008C24A00082DE9F04734
:1044CC00164699468A680B6907469342B8BF13464D
:1044DC00336091F843200C46DDF820800AB101339B
:1044EC0033602368990642BF336802333360256812
:1044FC0015F0060506D104F1190AE36832689B1A17
:10450C00AB4228DC94F84320131E226818BF012309
:10451C0092062DD44946384604F14302C047013077
:10452C0020D02368E56803F00603042B18BF002590
:10453C0032684FF00006A36808BFAD1A226908BFA5
:10454C0025EAE5759342C4BF9B1AED181A34B5429F
:10455C001AD1002008E00123524649463846C0478C
:10456C00013003D14FF0FF30BDE8F0870135C4E7CF
:10457C003020E11881F843005A1C94F8451022446D
:10458C00023382F84310C5E70123224649463846D8
:10459C00C0470130E6D00136D9E700002DE9FF47CE
:1045AC000C46277E9146782F80469A460C9904F14A
:1045BC00430207D8622F0AD8002F00F0D980582F59
:1045CC0000F0A48004F1420684F842703AE0A7F1AE
:1045DC006303152BF6D801A050F823F041460008D0
:1045EC0055460008D1450008D1450008D1450008C2
:1045FC00D145000855460008D1450008D1450008B2
:10460C00D1450008D14500086347000885460008DD
:10461C0045470008D1450008D145000885470008EA
:10462C00D145000885460008D1450008D145000851
:10463C004D4700080B6804F142061A1D1B680A60FE
:10464C0084F842300123A4E0256808682E0600F1A6
:10465C0004030AD505680B60002D03DA2D236D4287
:10466C0084F843300A235E4819E015F0400F0568C2
:10467C000B6018BF2DB2EFE70B682568181D08609A
:10468C00280601D51D6802E06906FBD51D886F2F31
:10469C000CBF08230A235248002184F84310666893
:1046AC00002EA8BF2168A660A4BF21F004012160E0
:1046BC000DB9002E4DD01646B5FBF3F103FB115787
:1046CC00C75D06F8017D2F46BB420D46F4D9082B79
:1046DC000BD12368DF0708D5236961689942DEBFD7
:1046EC00302306F8013C06F1FF36921B22614B4643
:1046FC0021464046CDF800A003AAFFF7DFFE0130AB
:10470C004CD14FF0FF3004B0BDE8F087344884F84A
:10471C0045700E68236856F8045B1F060E6014D5AE
:10472C00D90744BF43F0200323601DB9236823F04D
:10473C00200323601023AFE7236843F0200323609A
:10474C007823284884F84530E3E75E0648BFADB2CD
:10475C00E6E71646BBE70B6826681D1D60690D6011
:10476C0035061B6801D5186002E07106FBD5188070
:10477C00002316462361BAE70B681A1D0A601E68EF
:10478C0000213046626800F02FF808B1801B606091
:10479C0063682361002384F84330A8E73246494616
:1047AC0040462369D0470130ABD023689B0713D414
:1047BC00E068039B9842B8BF1846A4E70123324631
:1047CC0049464046D04701309BD00135E3680399F8
:1047DC005B1AAB42F2DCEBE7002504F11906F5E7B6
:1047EC00CD4A0008DE4A0008034610B5C9B202449F
:1047FC009342184601D1002003E0047801338C4227
:10480C00F6D110BD0A44914200F1FF3300D170473C
:10481C0010B511F8014B914203F8014FF9D110BDBD
:10482C00884210B501EB020402D98442234607D812
:10483C00431EA14208D011F8012B03F8012FF8E711
:10484C00014602448A4200D110BD13F8014D02F812
:10485C00014DF7E738B50546002943D051F8043C23
:10486C000C1F002BB8BFE41800F0D0F81E4A1368D8
:10487C00104633B9636014602846BDE8384000F038
:10488C00CBB8A3420AD921686218934201BF1A68B7
:10489C005B685218226063600460EDE71A465B683F
:1048AC000BB1A342FAD911685018A0420BD1206861
:1048BC000144501883421160DED118685B680144D2
:1048CC0011605360D8E702D90C232B60D4E7206821
:1048DC0021188B4201BF19685B680918216063605D
:1048EC005460C9E738BD00BFD4000020F8B5CD1C1A
:1048FC0025F0030508350C2D38BF0C25002D064678
:10490C0001DBA94203D90C2333600020F8BD00F071
:10491C007DF821490A6814469CB9204F3B6823B99D
:10492C002146304600F062F838602946304600F0E7
:10493C005DF8431C23D10C233046336000F06CF837
:10494C00E3E723685B1B17D40B2B03D923601C44B0
:10495C00256004E06368A2420CBF0B6053603046D4
:10496C0000F05AF804F10B00231D20F00700C21AC6
:10497C00CCD01B1AA350C9E722466468CCE7C41CF0
:10498C0024F00304A042E3D0211A304600F02EF8A4
:10499C000130DDD1CFE700BFD4000020D8000020CB
:1049AC00F8B5074614460E4621B91146BDE8F84045
:1049BC00FFF79CBF22B9FFF74DFF25462846F8BDEF
:1049CC0000F030F8A0420FD221463846FFF78EFF98
:1049DC0005460028F2D031462246FFF713FF314638
:1049EC003846FFF737FFE9E73546E7E738B50023E8
:1049FC00054D044608462B60FCF768FD431C02D1AC
:104A0C002B6803B1236038BD00020020014800F080
:104A1C0011B800BF08020020014800F00CB800BF1C
:104A2C000802002051F8043C181F002BBCBF0B5887
:104A3C00C018704770477047F8B500BFF8BC08BC89
:104A4C009E467047F8B500BFF8BC08BC9E46704740
:104A5C00483A2000257325640D0A0000563A2000C0
:104A6C00526564203D200000477265656E203D2034
:104A7C000000000059656C6C6F77203D2000000031
:104A8C0025640D0A0000000002030405060708094E
:104A9C000A0B0C0D0E0F101000000000000000009F
:104AAC0001020304060708090000000001020304C8
:104ABC00232D302B2000686C4C00656667454647FB
:104ACC00003031323334353637383941424344457E
:104ADC0046003031323334353637383961626364ED
:044AEC0065660000FB
:044AF0003101000888
:044AF4000D010008A8
:104AF8000C0000000C000000F40100002602000079
:104B080001000000E803000088130000B80B000053
:104B1800D00700000024F40010000000010000008D
:104B28003400002000000000000000000000000029
:104B3800000000000000000000000000000000006D
:104B4800000000000000000000000000000000005D
:104B5800000000000000000000000000000000004D
:104B6800000000000000000000000000000000003D
:104B7800000000000000000000000000000000002D
:044B88000000000029
:040000050800189542
:00000001FF
